:100000006FC3000095C3000093C3000091C30000BC
:100010008FC300008DC300008BC300000C94BE177B
:1000200087C3000085C3000083C3000081C30000B4
:100030007FC300007DC300007BC3000079C30000C4
:1000400077C3000075C3000073C3000071C30000D4
:100050006FC300006DC300006BC3000069C30000E4
:100060000C942A1765C300006164644E65774D697E
:100070006E757465546F436F756E7465727300614D
:1000800064644E756D6974726F6E5365676D656EED
:10009000744D61736B3A204E65706C61746E79209B
:1000A000696E646578206E756D6974726F6E753AED
:1000B00020005B4552524F525D20006578697445BF
:1000C0006469744D6F6465007B6057766C3E3F7069
:1000D0007F7E5C041BFF56594252415459204E55B5
:1000E0004D4954524F4E204349534C4F3A20004CF7
:1000F00045465420425554544F4E2052454C45419C
:1001000053454400524947485420425554544F4E99
:100110002052454C4541534544005072C3BA646F68
:1001200076C3BD2073656E7A6F72206E65626F6CE8
:10013000206EC3A16A64656EC3BD210A005B57418E
:10014000524E5D200053656E7A6F72207072C3BA92
:10015000647520696E696369616C697A6F76616E36
:10016000C3BD2E0A005B494E464F5D2000496E69B3
:100170006369616C697AC3A16369612073656E7A92
:100180006F7261207072C3BA64752E2E2E0A005BE6
:10019000494E464F5D2000525443206D6F64756C8C
:1001A000206E65626F6C206EC3A16A64656EC3BD0C
:1001B000210A005B5741524E5D2000525443206D8E
:1001C0006F64756C20696E696369616C697A6F76BA
:1001D000616EC3BD2E0A005B494E464F5D2000494B
:1001E0006E696369616C697AC3A163696120493290
:1001F00043207A6265726E6963652E2E2E0A005B5B
:10020000494E464F5D20004E65707269706F6A6599
:100210006EC3BD00507269706F6A656EC3BD002DFC
:100220002D2D2D2D2D2D2D2D2D2D2D2D2D2D2D2DFE
:100230002D2D2D2D2D2D2D2D2D2D2D2D2D2D2D2DEE
:10024000004E65707269706F6A656EC3BD00507252
:1002500069706F6A656EC3BD0053656E736F7220FF
:100260007072C3BA64752028494E41323139293A37
:10027000202020202020202000525443204D6F6455
:10028000756C2028445333323331293A2020202002
:1002900020202000566FC4BE6EC3A12070616DC3C4
:1002A000A4C5A52052414D3A202020202020002D19
:1002B0002D2D2D2D2D2D2D2D2D2D2D2D2D2D2D2D6E
:1002C0002D2D2D2D2D2D2D2D2D2D2D2D2D2D2D2D5E
:1002D000005370C3BAC5A1C5A5616E696520686F7A
:1002E00064C3AD6E20646F6B6F6EC48D656EC3A901
:1002F00021004443463737207072696AC3AD6D618F
:10030000C48D20696E696369616C697A6F76616E0C
:10031000C3BD2E005370C3BAC5A1C5A5616E696582
:10032000204443463737207072696AC3AD6D61C49B
:100330008D612E2E2E005A6F6272617A6F76616E19
:10034000696520C48D6173752E2E2E004E61C48D9B
:10035000C3AD746176616E696520756C6FC5BE65ED
:100360006EC3BD6368206B6F6E6669677572C3A1EB
:100370006369C3AD207A20454550524F4D2E2E2E35
:100380000052657365746F76616E6965206B616C90
:1003900069627261C48D6EC3BD636820C3BA646153
:1003A0006A6F762073656E7A6F7275207072C3BA49
:1003B00064752E0052657365746F76616E69652091
:1003C000C48D617375207620525443206D6F64751F
:1003D0006C652E00524553455420746C61C48D6980
:1003E000646C6F20626F6C6F2073746C61C48D6578
:1003F0006EC3A92C20706F75C5BE696A656D6520D6
:1004000076C3BD63686F647A696520686F646E6FD8
:100410007479206E6173746176656EC3AD2E004988
:100420006E696369616C697AC3A1636961206D6FEC
:1004300064756C6F762E2E2E005370C3BAC5A1C59D
:10044000A5616E6965207072657275C5A1656EC320
:10045000AD2E2E2E004B6F6E6669677572C3A16359
:10046000696120C48D61736F7661C48D612E2E2EFB
:1004700000496E696369616C697AC3A1636961202F
:1004800076737475706E6F2D76C3BD737475706EF0
:10049000C3BD63682070696E6F762E2E2E004B6F81
:1004A0006E6669677572C3A16369612070696E6F5A
:1004B00076204443463737207072696AC3AD6D6158
:1004C000C48D612E2E2E005370C3BAC5A1C5A5617F
:1004D0006E696520686F64C3AD6E2E2E2E002D2DC3
:1004E0002D2D2D2D2D2D2D2D2D2D2D2D2D2D2D2D3C
:1004F0002D2D2D2D2D2D2D2D2D2D2D2D2D2D2D2D2C
:100500002D2D00434F52525550544544004F4B003F
:100510002043616E6172793D0052414D2120467247
:1005200065653D005B435249544943414C5D2000A1
:10053000556B6F6E636F76616E6965206564697473
:100540002072657A696D75206B766F6C69206361C6
:10055000736F76656D75206C696D6974752E2E2EBE
:10056000005A6F6272617A6F76616E6965206E6F94
:1005700076C3A9686F20C48D6173752E2E2E004836
:100580006F64696E79207A6F73796E6368726F6ECB
:10059000697A6F76616EC3A92C20767970C3AD6ECF
:1005A000616E6965204443463737206D6F64756C12
:1005B000752E2E2E00414E5920425554544F4E2038
:1005C0005052455353454400424F544820425554DD
:1005D000544F4E53204C4F4E472052454C454153AB
:1005E000454400424F544820425554544F4E5320E6
:1005F00052454C454153454400506F736C65646EE1
:100600006120737472616E612C20756B6F6E6375FF
:100610006A656D6520656469742072657A696D2EFE
:100620002E2E00656E746572456469744D6F646545
:1006300000424F544820425554544F4E53204C4F83
:100640004E47205052455353454400524947485461
:1006500020425554544F4E204C4F4E472050524547
:100660005353454420004C45465420425554544F62
:100670004E204C4F4E472050524553534544200086
:10068000206F64706F6A656EC3BD2E002070726942
:10069000706F6A656EC3BD2E00494E41323139001C
:1006A000525443004D6F64756C20005B494E464FB9
:1006B0005D200020616B6369613D0020756C6F7A7D
:1006C000656E793A20686F64696E613D005B5469BC
:1006D0006D6572735D2054696D6572200000902312
:1006E00011241FBECFEFD8E0DEBFCDBF12E0A0E0E7
:1006F000B1E0E4EBF5E502C005900D92A43CB10732
:10070000D9F725E0A4ECB2E001C01D92A83BB207E6
:10071000E1F713E0C0E7D3E004C02197FE010E9497
:10072000952ACF36D107C9F70E94E9230C94D82A1D
:1007300067CCE0919D04E03250F491E09E0F9093DD
:100740009D04F0E0E458FB4F818381E0089580E050
:100750000895CF93DF936FB7F894ACE2B4E030E044
:1007600020E0C1E0D0E07D9190E080E0AE01082E75
:1007700001C0440F0A94EAF7472309F040E1FC0165
:10078000E20FF31FEF5CFB4F408301968830910529
:1007900069F7285F3F4F2032310529F780912B04FC
:1007A000813051F080EF8093220281E08093300409
:1007B0006FBFDF91CF91089584E1F5CF5F982898BE
:1007C000FC0194E050E040E0208130E0042E02C0C3
:1007D000359527950A94E2F720FF0DC02C9A289AA8
:1007E00028984F5F5F4F4830510571F7915031960F
:1007F0009111E8CF08952C98F2CFEFE0F4E0119238
:1008000084E0E931F807D9F71092190410921B041B
:100810008BE080931C0410921A04EDE1F4E0119235
:1008200084E0E732F807D9F71092270410922904E0
:100830008BE080932A041092280408958091AB03E2
:100840009091AA03891B990B0C9754F08091A903EE
:100850008A589091AC03891B8C3318F08C53FCCFD1
:100860008FEF0895EF92FF920F931F932FB7F89495
:1008700040918D0550918E0560918F057091900586
:100880008091890590918A05A0918B05B0918C0586
:1008900084179507A607B70738F02FBF80E01F9190
:1008A0000F91FF90EF9008957A018B01E81AF90AF1
:1008B0000A0B1B0BD801C7012FBF20E041155105C2
:1008C0006105710531F076956795579547952F5FCE
:1008D000F5CF222331F02695B695A7959795879564
:1008E000F8CF8F3F9105A105B105C9F2C0F28FEF96
:1008F00090E0A0E0B0E0D3CF8FB7F89490910D04D2
:1009000020910C04291718F08FBF80E00895392F2B
:10091000321B232F8FBF80E09D3140F49D3008F4BF
:1009200045C0832F869586950895832F969531E04F
:10093000380F9111FACF8D3068F08D3029F18E305B
:1009400031F181E190E0289FA001299F500D1124F1
:10095000852F0895893060F08B3028F08C30D1F4E9
:1009600085E190E0F0CF8A30C1F489E190E0EBCFEF
:10097000873028F08830A1F480E290E0E4CF863020
:1009800091F48AE290E0DFCF83E190E0DCCF82E176
:1009900090E0D9CF87E190E0D6CF8CE190E0D3CF43
:1009A00084E290E0D0CF83E390E0CDCF993048F05F
:1009B0003B30A0F43730A0F481E0343008F4A5CF08
:1009C0000895953030F0363058F481E02330C0F788
:1009D0009CCF9330D0F7832F8695089583E00895B8
:1009E00082E0EECF8FB7F8949091FD032091FC0345
:1009F000291718F08FBF80E00895392F321B232F5D
:100A00008FBF80E09D3140F49D3008F445C0832FB6
:100A1000869586950895832F969531E0380F91112C
:100A2000FACF8D3068F08D3029F18E3031F181E1CF
:100A300090E0289FA001299F500D1124852F089533
:100A4000893060F08B3028F08C30D1F485E190E073
:100A5000F0CF8A30C1F489E190E0EBCF873028F005
:100A60008830A1F480E290E0E4CF863091F48AE20D
:100A700090E0DFCF83E190E0DCCF82E190E0D9CF5E
:100A800087E190E0D6CF8CE190E0D3CF84E290E094
:100A9000D0CF83E390E0CDCF993048F03B30A0F445
:100AA0003730A0F481E0343008F4A5CF08959530B4
:100AB00030F0363058F481E02330C0F79CCF9330CB
:100AC000D0F7832F8695089583E0089582E0EECFD6
:100AD0008FB7F8949091CF032091CE03291718F087
:100AE0008FBF80E00895392F321B232F8FBF80E006
:100AF0009D3140F49D3008F445C0832F869586953E
:100B00000895832F969531E0380F9111FACF8D30EB
:100B100068F08D3029F18E3031F181E190E0289F2D
:100B2000A001299F500D1124852F0895893060F070
:100B30008B3028F08C30D1F485E190E0F0CF8A3012
:100B4000C1F489E190E0EBCF873028F08830A1F440
:100B500080E290E0E4CF863091F48AE290E0DFCF4B
:100B600083E190E0DCCF82E190E0D9CF87E190E0B3
:100B7000D6CF8CE190E0D3CF84E290E0D0CF83E376
:100B800090E0CDCF993048F03B30A0F43730A0F45E
:100B900081E0343008F4A5CF0895953030F0363038
:100BA00058F481E02330C0F79CCF9330D0F7832FE7
:100BB0008695089583E0089582E0EECFFC01908150
:100BC00028E087E097FF03C0990F982701C0990F8D
:100BD0002150C1F78181892798E027E087FF03C072
:100BE000880F822701C0880F9150C1F70895109295
:100BF000770481E080937604109271043C983D98CC
:100C0000449A459AE9EBF0E080818C7F808388E408
:100C10008093B80085E48093BC000895CF93DF9360
:100C200081E080932C0380912B03882391F0D09155
:100C3000B800C091BA008091BC008A7B8093BC0050
:100C40003C983D9844984598D2DFD093B800C09323
:100C5000BA00DF91CF91089590932A0380932903DE
:100C600083B7817F83BF83B7816083BF809129036E
:100C700090912A03892B11F08895F8CF83B78E7F46
:100C800083BF08958091C00086FFFCCF8091C00093
:100C900080648093C0000895259B08C000B605FEBF
:100CA00007C080912703877F8093270380E0089502
:100CB0008091270388608093270381E00895FC01D9
:100CC00080818C3398F48181883180F482818150D5
:100CD0008F3160F4838181508C3040F424813581E0
:100CE000205D374081E02436310508F080E008952A
:100CF0009DEC899F90011124232F3327269526955B
:100D0000269596EF299F800D112444E0220F331F72
:100D10004A95E1F7822B0895FC013FB7F89496AD10
:100D200085AD891718F03FBF80E00895292F281B53
:100D30003FBF80E09D3140F49D3008F445C0822FD4
:100D4000869586950895832F969531E0380F9111F9
:100D5000FACF8D3068F08D3029F18E3031F181E19C
:100D600090E0289FA001299F500D1124852F089500
:100D7000893060F08B3028F08C30D1F485E190E040
:100D8000F0CF8A30C1F489E190E0EBCF873028F0D2
:100D90008830A1F480E290E0E4CF863091F48AE2DA
:100DA00090E0DFCF83E190E0DCCF82E190E0D9CF2B
:100DB00087E190E0D6CF8CE190E0D3CF84E290E061
:100DC000D0CF83E390E0CDCF993048F02B30A0F422
:100DD0002730A0F481E0243008F4A6CF08959530A0
:100DE00030F0263058F481E02330C0F79DCF9330A7
:100DF000D0F7822F8695089583E0089582E0EECFA4
:100E0000FC019081442319F0690F60830895961BBB
:100E10009F5F90830895FC0115AE16AE8DE387AFFA
:100E2000DF0180E09D9126AD921738F025AF96AF97
:100E300087AF8F5F8C33B1F7089525AD2917C8F7B9
:100E400095AFF7CFFC01DC01CC961D92A817B9072E
:100E5000E1F714AE16AE8DE387AF15AE08958CE2C0
:100E600091E090939305809392058DE693E0EADFFD
:100E70008FEF8093B3038093B4038DE293E0E2DFBE
:100E8000E5EBF3E08DEC93E011928E179F07E1F70D
:100E90001092CD031092CF0389E18093D00310927A
:100EA000CE03ECEDF3E0119283E0EB3FF807D9F7C6
:100EB0001092FB031092FD0380E28093FE031092D8
:100EC000FC031092D1031092D2031092D30310921C
:100ED000D4031092D5031092D6031092D703109228
:100EE000D8031092DA0388E08093DB031092D903D1
:100EF000EFEFF3E08BE094E011928E179F07E1F79C
:100F000010920B0410920D048DE080930E04109249
:100F10000C0473CCFC013FB7F89494858385891742
:100F200018F03FBF80E00895292F281B3FBF80E0C5
:100F30009D3140F49D3008F445C0822F86958695FA
:100F40000895832F969531E0380F9111FACF8D30A7
:100F500068F08D3029F18E3031F181E190E0289FE9
:100F6000A001299F500D1124852F0895893060F02C
:100F70008B3028F08C30D1F485E190E0F0CF8A30CE
:100F8000C1F489E190E0EBCF873028F08830A1F4FC
:100F900080E290E0E4CF863091F48AE290E0DFCF07
:100FA00083E190E0DCCF82E190E0D9CF87E190E06F
:100FB000D6CF8CE190E0D3CF84E290E0D0CF83E332
:100FC00090E0CDCF993048F02B30A0F42730A0F43A
:100FD00081E0243008F4A6CF0895953030F0263013
:100FE00058F481E02330C0F79DCF9330D0F7822FA3
:100FF0008695089583E0089582E0EECF80E008951D
:10100000FC01828190E0813039F491E0611104C0EB
:10101000978193FB992790F98181813081F48481B4
:10102000811106C081E02581211107C080E005C043
:101030008130E1F725812111F9CF89230895873087
:1010400021F0843011F0803139F48481813059F3FA
:10105000823061F781E0EECF80E00895FC0162818B
:10106000623308F049C09181933108F045C0808116
:101070008A3908F041C0862F82958F702AE06F7000
:10108000362F829F300D1124492F933058F550E0B0
:10109000465F5F4F2081822F82958F702F706AE0AC
:1010A000869F200D112481E0933008F080E0281BFA
:1010B0006AE1649FC001659F900D112402976AE068
:1010C00070E00E94432A822F830F26952695820F77
:1010D000860F873090F08750682F669566956695E5
:1010E0008770F6CF4F70892F82958F70829F400D49
:1010F00011244250550BCECF8FEF08950F931F93BD
:10110000CF93DF93EC01AADF811101C087E08B83CD
:1011100019810A811330C8F48F818E7F8F83053245
:1011200028F0CE019BDF882309F443C08F818B7F99
:101130008F8360E0CE0164DF9F8180FB93F99F8302
:10114000DF91CF911F910F9108951330A9F40532CB
:1011500018F3CE0183DF882349F0202F281B330B9F
:1011600025323105CCF28F818160D8CF91E08C811E
:101170008230D0F490E018C01031A8F3103161F63D
:10118000053288F3CE016ADF882339F0202F281B2F
:10119000330B253231053CF3BFCF8C81823009F40B
:1011A000C0CF91E0823030F78F8190FB80F98F8340
:1011B000B8CF1330A1F48F812C81982F917080FFCC
:1011C00007C02330B1F491E02D81222399F011C0A2
:1011D000213081F491E02D8121110CC00AC0103121
:1011E00079F48F812C81982F917080FF06C0223076
:1011F00089F390E090FB82F99BCF2230D9F7E3CFBF
:10120000133108F493CF95CFDC011196EC91E150A6
:10121000E23148F5F0E0E15FF64F0C94952A35098C
:10122000230935092109350921093509350921091C
:1012300033093309330933093309330935092109DE
:1012400035098EE10895FC018081882381F0982F73
:1012500092959F708F70FAE09F9F800D112483708C
:1012600031F48DE1089580E008958FE108958CE1D7
:101270000895FC019081662339F021E09F3709F43D
:1012800020E0920F9083089581E092380CF480E082
:10129000981BF8CF982F9F7082958F709827892F71
:1012A0008370969596959827892F817096958927B2
:1012B0000895282F6AE00E94372A96EF899F200D13
:1012C00011248295807F2F70822B089580910D04C8
:1012D00090910C04891B990B029774F080910E0475
:1012E00090910B04890F9927991F01966CE070E08B
:1012F0000E94432A8F5FDDCF8FEF08958091FD0319
:101300009091FC03891B990B029774F08091FE0366
:101310009091FB03890F9927991F01966FE170E067
:101320000E94432A8F5FC5CF8FEF08958091DA0323
:101330009091D903891B990B029774F08091DB037C
:101340009091D803890F9927991F019667E070E063
:101350000E94432A8F5FADCF8FEF08958091CF0316
:101360009091CE03891B990B02976CF08091D0036A
:101370009091CD03890F9927991F019668E170E03C
:101380000E94432A96CF8FEF089580916B0390912E
:101390006A03891B990B02976CF080916C03909102
:1013A0006903890F9927991F01966CE370E00E94E9
:1013B000432A7FCF8FEF0895FC0184859385891B95
:1013C000990B02975CF085859285890F9927991F63
:1013D00001966AE070E00E94432A6BCF8FEF089578
:1013E000CF938FE094E0E8DFC82F8DE194E0E4DF55
:1013F000CF3F39F08F3F19F08295807F8C0FCF91CE
:1014000008958FEFFCCFCF93DF93EC0117DA8E8333
:10141000BCDF8D83A3DF8C8389DF8B836FDF8A83BF
:1014200055DF8983DDDF88838F819091220390FBD4
:1014300081F98F8391E08091230318160CF090E0DE
:101440008F8190FB82F9909124038E7F97FF8160BA
:101450008F8391E08091250318160CF090E08F8126
:1014600090FB83F98F83DF91CF910895DF92EF9204
:10147000FF920F931F93CF93DF93CDB7DEB72897DB
:101480000FB6F894DEBF0FBECDBF8C012FB7F89416
:1014900088E0EFE0F3E0DE01119601900D928A956D
:1014A000E1F7809115039091160390FBDD24D0F8AD
:1014B00092FBEE24E0F893FBFF24F0F82FBFF9DE57
:1014C000F80186838E8185838D8184838C818383DB
:1014D0008B8182838A81818389818083D782F1860F
:1014E000E08628960FB6F894DEBF0FBECDBFDF9121
:1014F000CF911F910F91FF90EF90DF900895FC0125
:101500009081292F2F70907F293028F42F5F2F7022
:10151000922B90830895908392959F70993020F438
:101520009F5F9295907FF5CF108208950F931F9340
:10153000CF93DF93FC012581293530F40596DF91A7
:10154000CF911F910F91DBCF2935A1F4EC011582CA
:101550009481878182FF17C080FD11C0913099F47A
:101560008F010C5F1F4FC801CADFC801C8DF8F8120
:1015700081608F83DF91CF911F910F9108959230F9
:1015800011F48E7FF6CF933218F4CE010496D7CFA4
:10159000933281F71C828B81873098F4CE010396B9
:1015A000AEDF1A81812F82958F701F70FAE08F9FB6
:1015B000100D1124CE0128DE181740F4CE0102963A
:1015C000BECF873071F781E08B83EBCF1813D2CF7A
:1015D00081E08A839981923118F4CE010196AFCFD0
:1015E000923141F689838881893910F4CE01A7CFE1
:1015F000893909F0BFCF1882BDCF8F929F92AF92E9
:10160000BF92CF92DF92EF92FF920F931F93CF93EF
:10161000DF93CDB7DEB728970FB6F894DEBF0FBEC5
:10162000CDBF8C01DC0115968C9115978F70B82E6B
:101630001696EC91E090B005F090B1052E2F30E0B9
:1016400050E040E02550310941095109ACE9BFEFB4
:101650000E94A32A9B01AC012E0D3F1D411D511D6F
:1016600069017A012B2D30E050E040E08091B20515
:10167000281B310941095109A0E9B8EE0E94A32AAB
:10168000C60ED71EE81EF91E31E3C31635E7D30692
:10169000E104F1043CF040E6C41A4AEED40AE10841
:1016A000F108F2CF51EDC5165AE8D5065FEFE50611
:1016B000F5063CF480E6C80E8AEED81EE11CF11C4B
:1016C000F1CFD0920C03C0920B03E53009F085C036
:1016D00061E0C80195DC882329F080910A038D7FA1
:1016E00080930A0380910A0381FF28C180910A0335
:1016F00080FF1CC18091AE059091AF058E34914062
:1017000008F4F9C080910B0390910C031816190688
:101710000CF4EAC080910B0390910C038C3F9F4F17
:101720000CF0E9C08FB7F894E0900703F09008033D
:101730008FBFA0910B03B0910C034091AE05509167
:10174000AF052AE63AE00E949B2A9A0150E040E069
:101750000E94792A49018091AE059091AF05609170
:10176000AE057091AF058759954F0E94432A60934B
:10177000090380910903811103C081E0809309036B
:10178000C701881999098033F8EF9F0714F480E3A3
:1017900098EF2FB7F894813D37E0930714F080ED70
:1017A00097E090930803809307032FBF88EB9BE09B
:1017B000909393058093920580E395E7A0E0B0E0D5
:1017C00080931E0390931F03A0932003B0932103E3
:1017D00080910A038D7F80930A03D80116968C911D
:1017E0008F3009F090C080910D0390910E03892BEA
:1017F00009F489C080910D0390910E03019709F4BB
:1018000082C088E0F801DE01119601900D928A9560
:10181000E1F7CE0101968ADECE0101966FDC988554
:1018200088E092FF80E090FFA1C0806193FD80641A
:1018300080688093AD031E81812F2CDD882309F4FD
:101840008FC010681093AE031D81812F23DD882384
:1018500009F488C010648B8180FF86C010681093E3
:10186000AF03BC80CB808C2D8695B0E2BB9E9001EF
:101870001124822B8093B0030981E02EF12CC70143
:1018800025E0880F991F2A95E1F7DA808D2980934A
:10189000B1038C2D8F70FEDC182F8C2D82958F70EC
:1018A000F9DC18278D2D8F70F5DC18278D2D82958A
:1018B0008F70F0DC18278B2DEDDC1827802F8F70B0
:1018C000E9DC1827802F82958F70E4DC33E0F594F3
:1018D000E7943A95E1F7181711F06894E5F8E0926B
:1018E000B2031092B3030FC080910B0390910C03CD
:1018F00005970CF017CF8091AE059091AF05863D0E
:10190000944108F00FCF28960FB6F894DEBF0FBEB3
:10191000CDBFDF91CF911F910F91FF90EF90DF909E
:10192000CF90BF90AF909F908F9008958091AE051B
:101930009091AF05863D944130F34ACF80910A03E0
:1019400080FFE1CF1092B1051092B0051092AF0563
:101950001092AE05B092B20580910A0382603BCF2F
:101960001F7770CF1F7B77CF1F7779CF80625ECFD5
:10197000FC0186818B3330F48F5F86838F30B1F426
:10198000CF01BCCB978193FF0BC08B3349F42581EA
:10199000211106C08CE38683892F877F8783089572
:1019A0008B53823018F41682CF01C0CD08958091F8
:1019B0003C012FEF829FC001112423E0959587956C
:1019C0002A95E1F720910001222351F0209188000F
:1019D0003091890020918A0030918B002091C502BE
:1019E00080930001089508959091C00095FFFCCF69
:1019F0008093C60081E090E008950F931F93CF93EA
:101A0000DF938C01D0E0C0E0F801EC0FFD1F849162
:101A1000882319F0E9DF2196F7CFCE01DF91CF912E
:101A20001F910F9108958DE0DFDF8AE0DDCFCF9326
:101A3000DF93E3DFEC01F7DFCE010296DF91CF9178
:101A400008950F931F93CF93DF93009769F0EC01F4
:101A50008C01C8018C1B9D0BF80121918F01222361
:101A600029F0822FC1DFF5CF90E080E0DF91CF91A8
:101A70001F910F910895CF93DF93E3DFEC01D3DF44
:101A8000CE010296DF91CF9108958F929F92AF92EF
:101A9000BF92FF920F931F93CF93DF93CDB7DEB723
:101AA000A1970FB6F894DEBF0FBECDBF19A29B0160
:101AB000AC01F12C97FF09C022273327A901261B6F
:101AC000370B480B590BFF24F394211531054105C1
:101AD0005105E9F480E388A38E01005E1F4FFF20CB
:101AE00021F0F8018DE282938F01C801AADFA1964F
:101AF0000FB6F894DEBF0FBECDBFDF91CF911F911F
:101B00000F91FF90BF90AF909F908F9008958E019E
:101B10000F5D1F4F8AE0882E912CA12CB12CCA0199
:101B2000B901A50194010E94572A605DF8016293F2
:101B30008F01211531054105510589F7D0CFCF928D
:101B4000DF92EF92FF920F931F93CF93DF93CDB766
:101B5000DEB7A1970FB6F894DEBF0FBECDBF282F1A
:101B600030E050E040E019A28E010F5D1F4F8AE087
:101B7000C82ED12CE12CF12C211531054105510540
:101B8000B1F480E388A38E01005E1F4FC80159DFC6
:101B9000A1960FB6F894DEBF0FBECDBFDF91CF91F7
:101BA0001F910F91FF90EF90DF90CF900895CA01A1
:101BB000B901A70196010E94572A605DF80162935E
:101BC0008F01211531054105510589F7DFCFEF92CE
:101BD000FF920F931F93CF93DF93F82E89E292E049
:101BE00030DF8F2DACDF83E392E02BDFFF0CFF0CA7
:101BF0000CE214E0D0E08AE0E82E81E392E021DFFD
:101C0000ED2FEF0DEE9EF0011124E65FFE4FC08137
:101C10008C2F95DFCE3038F4EC2FF0E0E853FF4FF7
:101C2000E491D801EC938091FE028D1308C080915D
:101C30002B04813021F4F801908190689083DF5F5C
:101C40000F5F1F4FD430C9F682E392E014DF1AD839
:101C5000DF91CF911F910F91FF90EF900C94A9030A
:101C60000F931F93CF93DF93D0E0C0E0009761F014
:101C70008C01D0E0C0E0F801EC0FFD1F84918823B7
:101C800019F0B2DE2196F7CFCE01DF91CF911F91EF
:101C90000F910895CF93DF93E3DFEC01C4DECE0113
:101CA0000296DF91CF910895DBCFCF93DF93909190
:101CB0000603292F30E0082E02C0359527950A9497
:101CC000E2F72170261759F121E030E0082E01C01B
:101CD000220F0A94EAF76623F9F0292B20930603D2
:101CE000C62FD82F8BEA96E0DFDF84EA96E0DCDFB0
:101CF0000E94420680EA96E0DD2311F089E996E031
:101D0000D3DF8CE896E0C11102C080E896E0C2DF24
:101D1000DF91CF910C94420620952923DFCFDF91EC
:101D2000CF910895CF93C82FE091FE02E430B0F038
:101D300082EB90E0B9DF8FE790E0B6DF0E944206C9
:101D4000C430C0F082EB90E0AFDF8FE790E0ACDF13
:101D50000E944206C093FE02CF910895F0E0E45D38
:101D6000FB4F9081892F8F77981751F380830E94C2
:101D7000A903E6CFEC2FF0E0E45DFB4F9081892FC3
:101D80008068981739F380830E94A903E3CFCF932B
:101D9000C82F8D3208F0CCE2809101018C17D1F070
:101DA00080910101C81760F0809101018C1790F4B7
:101DB000809101012C2F281B330B6217130654F45A
:101DC00088E492E03EDE8C2FBADE2DDE0E944206D1
:101DD000C0930101CF91089590910101282F880FA0
:101DE000330BA901490F511DCA014B30510564F055
:101DF0004D32510514F08CE290E060E0C8DF809134
:101E000001018093060108958BE0F7CF8FEE90E0FB
:101E100041DF0E94420680912B04813071F4809151
:101E2000FE028F5F83707EDF86ED90E03DDF809164
:101E3000FE0285DEF8DD0C944206809132018111AC
:101E400002C082E0C9CF0895880F880F9AE0989F5A
:101E5000F0011124E65FFE4F71876087E1E0E80F33
:101E60009E9FF0011124E65FFE4F71876087E2E0DC
:101E7000E80F9E9FF0011124E65FFE4F7187608797
:101E80008D5F989FF0011124E65FFE4F7187608798
:101E90000895880F880F9AE0989FF0011124E65F5B
:101EA000FE4F77836683E1E0E80F9E9FF0011124E7
:101EB000E65FFE4F77836683E2E0E80F9E9FF001C6
:101EC0001124E65FFE4F778366838D5F989FF00154
:101ED0001124E65FFE4F7783668308959AE0899F19
:101EE000F0011124E65FFE4F9181691798F092810D
:101EF000961780F09081691769F060830480F581FE
:101F0000E02D309729F0682F6370869586950995A6
:101F100081E0089580E0089590916E0180917801AC
:101F2000282F3AE0939F200D1124283158F0623079
:101F300019F0633021F00895692F8AE0CFCF682F20
:101F40008BE0FCCF08951F93CF93DF93EAE0E80F77
:101F5000EE0FCAE0CE9FD0011124A65FBE4FDC91E8
:101F6000EF5FCE9FF0011124E65FFE4F1081682FD6
:101F700088E0B4DF612F89E0B1DF8D2F6C2F0E94E4
:101F8000372AC92F682F8AE0A9DF6C2F8BE0DF91F9
:101F9000CF911F91A3CF611103C080912803D3CFAC
:101FA000089584E091E076DE0E94420680912B0441
:101FB0008130C1F48091FF02880F880F9091FE025A
:101FC000890F9AE0899FF0011124E65FFE4F60813E
:101FD0009281691728F0618181DF8091FF02F7CD3E
:101FE0006F5FFACF80913201811102C08EEFF4CE83
:101FF0000895CF92DF92EF92FF920F931F9300E02C
:1020000010E09801009731F560E085C0C090780439
:10201000D0907904E0907A04F0907B04CD28CE280B
:10202000CF2881F0C0907804D0907904E0907A04B1
:10203000F0907B040C151D052E053F0518F00E943D
:102040000E06E2CF45E14A95F1F700000C5F1F4F05
:102050002F4F3F4F409177044111D8CF22E020937A
:10206000770421E0209376042FEF209375041092DB
:102070007404260F2093730421ED209372042091A1
:102080007104222309F44FC01092710400E010E0A3
:102090009801409172044093BB00C0907804D090A6
:1020A0007904E0907A04F0907B04CD28CE28CF28E4
:1020B00071F0C0907804D0907904E0907A04F090A8
:1020C0007B040C151D052E053F0508F0B8CF45E132
:1020D0004A95F1F700000C5F1F4F2F4F3F4F409183
:1020E000BC0043FDD6CF25EC2093BC0000E010E0FF
:1020F0009801409177044230C1F020917404261772
:1021000010F460917404A1E5B4E0282FFC018E2F37
:10211000821B861768F1862F1F910F91FF90EF9019
:10212000DF90CF90089525EEDFCFC0907804D09057
:102130007904E0907A04F0907B04CD28CE28CF2853
:1021400071F0C0907804D0907904E0907A04F09017
:102150007B040C151D052E053F0508F070CF45E1E9
:102160004A95F1F700000C5F1F4F2F4F3F4FC1CF33
:102170008D918193CCCFCF92DF92EF92FF922091FD
:102180009D0480917C0440E050E0BA01213258F176
:1021900081E01CC0C0907804D0907904E0907A046B
:1021A000F0907B04CD28CE28CF28A9F0C0907804E9
:1021B000D0907904E0907A04F0907B044C155D0592
:1021C0006E057F0540F00E940E0685E0FF90EF90BF
:1021D000DF90CF90089595E19A95F1F700004C5F5C
:1021E0005F4F6F4F7F4F909177049111D3CF91E064
:1021F00090937704909376049FEF909375041092D8
:1022000074042093730490E0880F991F80937204E4
:10221000ADE7B4E0E1E5F4E080E028134BC0809145
:102220007104882309F44AC01092710480E090E0A0
:10223000DC01209172042093BB00409178045091FE
:10224000790460917A0470917B04452B462B472BCF
:1022500071F0409178045091790460917A04709102
:102260007B0484179507A607B70708F0ACCF25E1D4
:102270002A95F1F700000496A11DB11D2091BC0024
:1022800023FDD7CF85EC8093BC0080E090E0DC019B
:10229000209177042130A1F0809175048F3F91F156
:1022A00080917504803281F180917504803371F1E1
:1022B00084E08CCF9D9191938F5FAFCF85EEE3CF7C
:1022C000409178045091790460917A0470917B0474
:1022D000452B462B472B71F040917804509179049F
:1022E00060917A0470917B0484179507A607B7075D
:1022F00008F069CF25E12A95F1F700000496A11DA9
:10230000B11DC6CF80E062CF82E060CF83E05ECFB8
:102310001F93CF93DF93D82F192FC62F88E6809372
:102320007C0481E080939D0480937D0424DF8111EF
:102330002FC06C2F8EE994E05CDE8093BF04109276
:10234000BE048C17D8F02D2FAD2FB12FE091BE0415
:102350008091BF04E81778F481E08E0F8093BE046B
:10236000F0E0E458FB4F82A18D938A2F821B8C17DB
:1023700068F381E00EC08FEF9FEFF6CF9091BE041F
:10238000981731F09817E0F79F5F9093BE04F6CF4F
:1023900080E0DF91CF911F9108950F931F93CF930A
:1023A000DF93CDB7DEB72C970FB6F894DEBF0FBE24
:1023B000CDBF8C0166E0CE010196AADF81110CC071
:1023C00080E02C960FB6F894DEBF0FBECDBFDF9134
:1023D000CF911F910F9108958981282F2F772295F2
:1023E0002F709AE08F70299F800D11248F838A812E
:1023F000282F2F7322952F708F70299F800D112405
:1024000088878C81282F2F7322952F708F70299F9A
:10241000800D112489878D8184FB222720F98F70FC
:10242000299F800D11248A878E81282F22952F7055
:102430008F70299F800D112490E08053984F9C87C6
:102440008B87CE0107960E945F06882309F4B8CFD8
:1024500096E0FE013796D80101900D929A95E1F72A
:10246000B0CFCF92DF92EF92FF921F93CF93DF9383
:1024700000D000D000D0CDB7DEB761113CC0182F1E
:10248000CE01019626E0FC0111922A95E9F785DF3D
:10249000882389F1CD80DE80110F110FC60168EE0F
:1024A00073E00E94432ACB012AE0E22EF12CB7010F
:1024B0000E94432A682F812F11DDC60164E670E077
:1024C0000E94432ACB01B7010E94432A682F81E072
:1024D000810F04DDC601B7010E94432AD82ECB012B
:1024E000B7010E94432A682F82E0810FF7DC6D2D2F
:1024F00083E0810FF3DC26960FB6F894DEBF0FBEA3
:10250000CDBFDF91CF911F91FF90EF90DF90CF90E3
:102510000895EF92FF920F931F93CF93DF9300D014
:1025200000D000D0CDB7DEB7611128C0182FCE0182
:10253000019626E0FC0111922A95E9F72EDF882307
:1025400051F1FC808B81110F110F0AE0602F0E9466
:10255000372AE92E682F812FC1DC6E2D81E0810F93
:10256000BDDC8F2D602F0E94372A092F682F82E053
:10257000810FB4DC602F83E0810FB0DC26960FB6AC
:10258000F894DEBF0FBECDBFDF91CF911F910F91A9
:10259000FF90EF90089581E0FF24F394D4CF0F9340
:1025A0001F93CF93DF93CDB7DEB72A970FB6F8947A
:1025B000DEBF0FBECDBF0091FA021091F9028091EB
:1025C000060380FF25C062E0CE010196A1DE8823CC
:1025D00009F458C09981892F8F7782958F703AE0DE
:1025E0009F70839F900D11249C3308F04BC08A810B
:1025F000282F2F7322952F708F70239F800D112409
:10260000883108F03FC09093F9028093FA023AC0F3
:1026100080910D0390910E03892BF9F080910D03A9
:1026200090910E030197C9F0CE0101960E94360ADF
:102630008D81282F22952F709AE08F70299F800D11
:1026400011248093FA028E81282F22952F708F708B
:10265000299F800D11248093F9028091270381FF27
:1026600011C0809127038D7F8093270388E690E037
:10267000DED90E9442068091F9028F5F8C33B8F454
:102680008093F9028091FA0280131CC081E090913E
:10269000F902911301C080E02A960FB6F894DEBFCC
:1026A0000FBECDBFDF91CF911F910F910895109272
:1026B000F9028091FA028F5F883108F4A6CF109258
:1026C000FA02E0CF81E0E8CF1F93CF93DF93D82FBA
:1026D000C62F61111AC063DFDD0FDD0F1AE0909184
:1026E000FA028091F9022EEF2C0F223090F0892F00
:1026F000C11113C0892F612F0E94372A682F8D2F97
:102700008C0FECDBCF5FC43051F7DF91CF911F917D
:102710000895C23011F4982FEDCF612F0E94372A0F
:10272000892FECCFCF93C62F90E490937C0491E057
:1027300090939D0480937D04872F0E9499038C2F92
:102740000E94990318DD91E0811190E0892FCF91CB
:102750000895EF92FF920F931F93CF93DF9300D0D2
:1027600000D000D0CDB7DEB78C010E945F06982F55
:10277000882309F461C0FF24F394FB82F80180816F
:102780000E9478068983F80181810E9478068A83F5
:10279000F80182810E9478068C83F80183810E946F
:1027A00078068D83F8018481805D0E9478068E838F
:1027B00088E680937C04F0929D04F0927D048E0163
:1027C0000F5F1F4F7E01F7E0EF0EF11CF8018191C2
:1027D0008F010E949903E016F106C1F7CCDC882333
:1027E00011F090E029C088E6F82EF0927C0411E008
:1027F00010939D040FE000937D04BDDC8111F1CFA7
:1028000061E08EE994E0F5DB8093BF04811103C0A1
:102810001092BE04E6CF1093BE0480919E04F09205
:102820007C0410939D0400937D048F770E9499038C
:10283000A2DC91E08111D5CF892F26960FB6F894AE
:10284000DEBF0FBECDBFDF91CF911F910F91FF90E3
:10285000EF900895CF93DF93CDB7DEB72C970FB6E7
:10286000F894DEBF0FBECDBF611126C0CE01019628
:1028700026E0FC0111922A95E9F78FDD8823E1F02B
:1028800089818F838A818887209182019AE0809153
:102890008C01299F800D11248987209196018091B8
:1028A000A001299F800D11248A878D819E819C879C
:1028B0008B87CE0107964DDF2C960FB6F894DEBFBE
:1028C0000FBECDBFDF91CF910895CF93DF93CDB7EA
:1028D000DEB72C970FB6F894DEBF0FBECDBF6111E7
:1028E00032C0CE01019626E0FC0111922A95E9F74B
:1028F00054DD882341F14091AA0128EE33E0429F44
:10290000C001439F900D11242091B401F4E62F9F44
:10291000800D911D11242091BE013AE0239F800D6E
:10292000911D11242091C801820F911D29812F83AF
:102930002A8128872B8129872C812A879C878B874E
:10294000CE01079606DF2C960FB6F894DEBF0FBEB9
:10295000CDBFDF91CF9108950F931F93CF93DF9356
:1029600000D000D000D0CDB7DEB761114AC0E82F4B
:10297000EE0FEE0F8AE08E9FD0011124A65FBE4FAE
:102980002C91A1E0AE0F8A9FD0011124A65FBE4F0B
:102990009C91289F900D11249093FA02A2E0AE0F13
:1029A0008A9FD0011124A65FBE4F2C91ED5F8E9FB0
:1029B000F0011124E65FFE4F9081289F900D1124B5
:1029C0009093F9028091060380FF1BC08E010F5F78
:1029D0001F4F86E0F80111928A95E9F7C801DDDC06
:1029E000811107C081E08B838C8380ED97E09E830B
:1029F0008D838091F90289838091FA028A83C801CC
:102A0000A8DE26960FB6F894DEBF0FBECDBFDF91CD
:102A1000CF911F910F91089588E680937C041092C6
:102A20009D04A9DB61E0811160E080E03ED980E493
:102A300080937C0410929D049EDB61E0811160E034
:102A400081E033C985ED8093BC008091780490913A
:102A50007904A0917A04B0917B04892B8A2B8B2B6B
:102A6000C9F08091780490917904A0917A04B09192
:102A70007B040796A11DB11D23E0B695A7959795F8
:102A800087952A95D1F72091BC0024FD07C01092AC
:102A9000770408958FEF9FEFDC01F5CF0097A10534
:102AA000B10511F40C940E062AE22A95F1F700C044
:102AB000409178045091790460917A0470917B047C
:102AC000452B462B472BF9F20197A109B109DBCF22
:102AD000EF92FF920F931F93CF93C42F062F9CE189
:102AE000899F000D1124E02EF12CC7010E94002ABD
:102AF000C81721F06C2FC7010E94292A88E097E0AF
:102B0000C7FF14C0CC0FC9278150D1F70C5A10E071
:102B1000C8010E94002AC81759F06C2FC801CF9134
:102B20001F910F91FF90EF900C94292ACC0FECCFBE
:102B3000CF911F910F91FF90EF9008953F924F9288
:102B40005F926F927F928F929F92AF92BF92CF923D
:102B5000DF92EF92FF920F931F93CF93DF9300D0FA
:102B600000D000D0CDB7DEB7882E912C9AE0899F97
:102B7000D0011124A65FBE4F1896ED91FC911997D4
:102B80003097E1F0682F63708695869526960FB68C
:102B9000F894DEBF0FBECDBFDF91CF911F910F9193
:102BA000FF90EF90DF90CF90BF90AF909F908F906D
:102BB0007F906F905F904F903F90099413969C91F7
:102BC000992309F47BC0182F7E01A4E0EA0EF11CC2
:102BD000FE0131963F0184E5482E480C6F015701F4
:102BE000582C97E0392E852D90E00E94002A082F5E
:102BF000D5018D935D0184E5850D90E00E94002A4A
:102C000098E007FF73C0000F03259150D1F791E0C2
:102C1000801390E0F60191936F01FCE15F0E541078
:102C2000E2CFA3014D5F5F4FF701530100E070E079
:102C3000D5018D915D018823B9F09701C30160E052
:102C4000DC01DD90CD01DD2031F0D901CC90D080C8
:102C5000CD1001C06F5F2F5F3F4F4817590781F7B5
:102C6000761710F40081762F31964A155B0501F72F
:102C7000772321F18AE0889DF001899DF00D1124D0
:102C8000E65FFE4F81810817C8F082818017B0F09F
:102C90000083D12CF30181913F01882321F0D701DA
:102CA0008C91801721F0402F612F8D2D11DFD3944F
:102CB000BFEFEB1AFB0AE3E0DE12ECCF26960FB66D
:102CC000F894DEBF0FBECDBFDF91CF911F910F9162
:102CD000FF90EF90DF90CF90BF90AF909F908F903C
:102CE0007F906F905F904F903F900895000F8DCF31
:102CF000CF93DF93D82FDD0FDD0FC0E08D2F8C0F2A
:102D00001DDFCF5FC430D1F7DF91CF910895CF930E
:102D1000DF939AE0899FD0011124A65FBE4F1696DB
:102D2000ED91FC911797309739F0682F6370869575
:102D30008695DF91CF91099413969C9113979923CF
:102D400081F0C82FDC914D2F682F80E0C1DE4D2F20
:102D50006C2F81E0BDDE4D2F6C2F82E0DF91CF9193
:102D6000B7CEDF91CF910895CF93DF93D0916401D7
:102D700080916E01C09178019AE0899FC00D112465
:102D800080912803865F6C2F880FA8D88091280334
:102D9000880F6D2F8B5EA2D880912803865F880FE5
:102DA000B6DF80912803880F8B5EB1DF8DEC96E053
:102DB0000E94FD0C809128030E949F0D8BEB96E0F2
:102DC0000E94FD0C8C2F0E949F0D83EB96E00E94C9
:102DD000FD0C8D2F0E949F0D0E94130DDF91CF914E
:102DE0000C944206611101C0BFCF0895CF93C091EA
:102DF0005A01809128038C1731F0B6DFC093280365
:102E00008C2FCF91A0C8CF910895CF93DF938BEBF8
:102E100090E00E944A0E0E94420610922B04D0912C
:102E2000FF02DD0FDD0FC0E08D2F8C0F70DFCF5F55
:102E3000C430D1F71092FF028FB7F89410920103BB
:102E4000109200038FBF60E080910601DF91CF9167
:102E50000C94C70E1F920F920FB60F9211242F934E
:102E60003F934F935F936F937F938F939F93AF9312
:102E7000BF93EF93FF938091B900887F883209F464
:102E800040C000F58031A9F1B0F4882309F473C083
:102E9000883079F1FF91EF91BF91AF919F918F9120
:102EA0007F916F915F914F913F912F910F900FBE46
:102EB0000F901F901895883121F1803259F7809337
:102EC000750415C08034D1F160F48033C1F38833C8
:102ED00009F78093750485EC8093BC001092770409
:102EE000D9CF8035F9F0883589F1883499F6AADD93
:102EF000D1CF809172048093BB0085EC8093BC009D
:102F0000C9CF9091740480917304981758F5E0919B
:102F1000740481E08E0F80937404F0E0EF5AFB4F4D
:102F20008081E9CFE091740481E08E0F8093740476
:102F30008091BB00F0E0EF5AFB4F808390917404C6
:102F4000809173049817C8F285E8D8CFE091740493
:102F500081E08E0F809374048091BB00F0E0EF5A03
:102F6000FB4F8083809176048111C1CF81E08093F3
:102F7000710484EAB1CF10927504B9CF1F920F92F9
:102F80000FB60F9211248F929F92AF92BF92CF9261
:102F9000DF92EF92FF920F931F932F933F934F93E4
:102FA0005F936F937F938F939F93AF93BF93EF93B1
:102FB000FF93CF93DF93CDB7DEB76897DEBFCDBF6A
:102FC0008091070390910803092E000CAA0BBB0BFC
:102FD0004091CF025091D0026091D1027091D20203
:102FE000840F951FA61FB71F8093CF029093D00226
:102FF000A093D102B093D20281152AEF9207A105C6
:10300000B1050CF44FC09A5FA109B1098093CF02BA
:103010009093D002A093D102B093D20288EF809314
:10302000B300E0910401F091050109952091A505F7
:10303000280F2093A5059091A405943019F4820FD0
:103040008093A5059F5F9093A4059A3008F4D7C19B
:10305000F090A505809188058336C8F58F5F809331
:103060008805E09088052E2D30E0A901440F551FFA
:10307000FA01E054FB4F808191816091920570913B
:1030800093056817790730F57183608385E08F15A4
:1030900058F5F901E05BFF4FE436F10570F1E456B5
:1030A000F109FACF813036E09307A105B1056CF440
:1030B0009650AF4FBF4F8093CF029093D002A09312
:1030C000D102B093D2028AEFAACF89EFA8CF109293
:1030D0008805C7CFA5E0AF1538F486179707C8F65F
:1030E000019691838083D5CFFA01E054FB4F808114
:1030F0009181009771F20197F4CFB901665A7F4F21
:103100006436710518F064567109FACF8091940500
:1031100090919505A0919605B0919705809098059E
:1031200090909905A0909A05B0909B0588169906F5
:10313000AA06BB0654F48093980590939905A09332
:103140009A05B0939B05E0939C050091910510E0D2
:10315000085D1F4F0436110518F004561109FACF07
:103160002017310741F480939D0590939E05A0930D
:103170009F05B093A005E1102CC080909805909019
:103180009905A0909A05B0909B0580928D0590922C
:103190008E05A0928F05B092900510919C0510931A
:1031A000910580909D0590909E05A0909F05B09000
:1031B000A0058092890590928A05A0928B05B09215
:1031C0008C05109298051092990510929A0510920C
:1031D0009B05EE0FFF1FE054FB4F80809180B12CC8
:1031E000A12C880C991CAA1CBB1C88199909AA0936
:1031F000BB09660F771FFB01E054FB4F60817181B3
:10320000860F971FA11DB11D40545B4FFA014081ED
:103210005181840F951FA11DB11D8093940590933A
:103220009505A0939605B09397058091A30581110C
:10323000C6C08091910590E0A9014B595F4F481B92
:10324000590B4436510518F044565109FACF4B300A
:10325000510568F08C599F4F821B930B8436910562
:1032600018F084569109FACF029708F0A8C0CE0151
:1032700041960E94030A88E0FE017196DE011996CC
:1032800001900D928A95E1F71091CE0291E0111113
:1032900001C090E08F89890F8F8BCE0141960E94EB
:1032A000B80CCE0141960E947E088F89882309F4CC
:1032B00045C28093CC020E943204182F8DE693E021
:1032C0000E948C06811708F4182F8DE293E00E946B
:1032D0008C06082F181708F4012F0E946805E82EA5
:1032E000081708F4E02E0E94F204082F0E947C04C4
:1032F000D82E8FE094E00E948A07182F8DE194E089
:103300000E948A07D01608F40D2D101708F4012F1B
:10331000801708F4082F8FB7F8949091DA03209162
:10332000D903291708F44EC28FBFE01608F40E2DFA
:1033300080910D0390910E03023008F4D6C20597D8
:1033400059F080910A03816080930A0385E090E040
:1033500090930E0380930D0384E0C82ED12CAA24F1
:10336000A394B12C80910D0390910E0382309105AE
:1033700019F108F04AC3009709F467C3019791F760
:1033800001114BC310920E0310920D03909117037D
:1033900081E098279093170310921503109214035D
:1033A00010921303809311038093100310920F0364
:1033B000809312031092160386E18093A3059091E7
:1033C000A3059923C1F091509093A30581E0B5E046
:1033D000BF1508F080E02091A105820F8093A10520
:1033E0009B3009F07FC3863008F47AC382E0809373
:1033F000A2051092A1051092A4051092A505809136
:103400001803909119030196909319038093180360
:1034100020910D0330910E032530310539F02091B4
:103420000D0330910E0324303105B9F48E379440EA
:10343000A0F081E090E0A0E0B0E080931A039093C8
:103440001B03A0931C03B0931D0383E090E09093B3
:103450000E0380930D030E942F0780910D0390911E
:103460000E03039739F080910D0390910E0302979C
:1034700009F048C08091180390911903883E43E0F9
:10348000940708F43FC0885E93409093190380939B
:10349000180380911603877F809316038FE093E0D3
:1034A0000E94B80C8FE093E00E94FD0A8091170300
:1034B00091E089278093170380911A0390911B0351
:1034C000A0911C03B0911D030196A11DB11D809315
:1034D0001A0390931B03A0931C03B0931D03409108
:1034E0001E0350911F036091200370912103481720
:1034F00059076A077B0730F482E090E090930E034F
:1035000080930D038091B305893010F00C9426232D
:103510008F5F8093B30598B580910101981711F1E1
:10352000809101018D32F0F48091D3028F5F8093FE
:10353000D3028C37C9F498B580910101981710F027
:103540000C94622388B581110AC084B5882311F4D4
:103550000C945C2385B5882311F40C945C2388B506
:103560008F5F88BD1092D302F0903004FF2009F4E1
:103570008AC08091F4028F5F803110F00C94722326
:103580008093F4029091F402DE01119650E040E045
:103590008D0161E070E030E020E080E0FA01E20FB0
:1035A000F31FEC52FD4FE0819E1738F4FB01022E11
:1035B00001C0EE0F0A94EAF78E2B2F5F3F4F2830A1
:1035C000310561F78D93485F5F4F4032510519F720
:1035D000C8010E94DE035F98000000005F9A80919E
:1035E000220281508093220281114DC080912B04D0
:1035F000813011F00C94762384E18093220230E034
:1036000020E080E0D901AC52BD4F4C91F901EF5C54
:10361000FB4F9081491710F00C9479238C918F5FA8
:103620008C938F2D2F5F3F4F2032310559F7811139
:103630002AC010923004F80130E020E061E070E030
:1036400040E090E080E0D901A80FB91FAC52BD4F17
:103650005C91503138F0DB01082E01C0AA0F0A94AA
:10366000EAF74A2B01968830910569F74193285F64
:103670003F4F2032310521F7C8010E94DE035F98D9
:10368000000000005F9A8091290390912A03892B02
:1036900049F08091290390912A03019790932A037E
:1036A00080932903809100039091010301969093E8
:1036B00001038093000368EE73E00E94432A892B84
:1036C000A9F48091270381608093270380910003F0
:1036D0009091010380369A4E48F0809127038260D2
:1036E0008093270310920103109200038091270317
:1036F00084608093270368960FB6F894DEBF0FBEF0
:10370000CDBFDF91CF91FF91EF91BF91AF919F918D
:103710008F917F916F915F914F913F912F911F9169
:103720000F91FF90EF90DF90CF90BF90AF909F9060
:103730008F900F900FBE0F901F90189588E0FE019C
:103740003996A6ECB2E001900D928A95E1F71092BD
:10375000CC028E89813031F580912303181614F440
:1037600010922403109223031092250390912403B6
:10377000888D8E7F97FF81608B7F877F888FCE01BA
:1037800041960E947E08988D8091CD0290FB80F931
:1037900092FB82F993FB83F99091220390FB81F9CC
:1037A0008093CD028D89833229F48E89893511F475
:1037B0001092260381E0123008F080E0812380938C
:1037C000CE0279CD192F121B8FBF80E09D3138F4C6
:1037D0009D3008F46CC01695169516C0822F9695EC
:1037E00021E0280F9111FACF8D30A8F18D3009F426
:1037F0004CC08E3009F44CC081E190E0189F9001DC
:10380000199F300D1124132F002309F48ECD11239D
:1038100009F48BCD0E941E048F830E94C5098E83FC
:103820000E94AE098D830E9496098C830E947E09B6
:103830008B830E9466098A830E94F0098983CE01E6
:1038400001960E942E08811101C087E09C81981387
:1038500047C00F5F6ACD893060F08B3028F08C3024
:10386000D1F485E190E0CACF8A30C1F489E190E0DB
:10387000C5CF873028F08830A1F480E290E0BECF39
:10388000863091F48AE290E0B9CF83E190E0B6CF40
:1038900082E190E0B3CF87E190E0B0CF8CE190E09F
:1038A000ADCF84E290E0AACF83E390E0A7CF993038
:1038B00058F01B3008F027C7173008F02AC714301B
:1038C00008F433CD11E020C7953030F0163008F001
:1038D00020C71330B8F729CD9330D8F7169594CF79
:1038E000101708F422CD00E020CD059709F034CD63
:1038F00080910A038E7F80930A030E943204EE2493
:10390000E394882309F477C0E12C8DE693E00E94CC
:103910008C0611E0811110E01E2921F08DE293E068
:103920000E9422078DE293E00E948C06EE24E3942D
:103930008111E12CE12A81F0E5EBF3E0119223E023
:10394000ED3CF207D9F71092CD031092CF0389E135
:103950008093D0031092CE030E94680511E081117C
:1039600010E0E12A39F11092D1031092D2031092A3
:10397000D3031092D4031092D5031092D603109261
:10398000D7031092D8031092DA0388E08093DB0308
:103990001092D903ECEDF3E0119233E0EB3FF30723
:1039A000D9F71092FB031092FD0380E28093FE038F
:1039B0001092FC030E94F20411E0811110E01E2914
:1039C00081F0EFEFF3E0119244E0EB30F407D9F728
:1039D00010920B0410920D048DE080930E0410924F
:1039E0000C040E947C04882309F011110E94FD033D
:1039F00084E090E0ADCC8DE693E00E9422078FEF4B
:103A00008093B3038093B40380CF8430910521F178
:103A100008F449C0059709F0A5CC1092190310923B
:103A2000180388E0E6ECF2E0AFE0B3E001900D921D
:103A30008A95E1F786EC92E00E94FD0A80911703D7
:103A400091E0892780931703B7CC0023B9F3B09294
:103A50000E03A0920D0386CC0E943204853690F0AE
:103A600080911603877F809316038FE093E00E9476
:103A7000B80C8FE093E00E94FD0A10921903109297
:103A80001803DCCF83E090E090930E0380930D0346
:103A90000E942F0710921A0310921B0310921C030E
:103AA00010921D0389CC0E943204853608F484CC20
:103AB00080911803909119039C01295C31092735E5
:103AC000324008F479CCD0920E03C0920D03883CAA
:103AD000910508F047CC10921903109218036CCC92
:103AE00080E085CC911187CC01E0863008F400E0BD
:103AF0008091A205080F0093A2051092A105CE01A6
:103B000001960E94030A1091CE028F81810F8F834C
:103B1000CE0101960E94B80C110F8F818B3349F4AE
:103B2000988593FB882780F993FF04C081E09E81EC
:103B3000911180E0810F8093CE02813009F45BCC3B
:103B40004091AB038091AA03481B550B8091B303AE
:103B50008F3F09F0BCC08091A903882309F46CC091
:103B6000AFEFA80FEBEE853108F4E7E2E80FF0E0E5
:103B7000282F30E0B0E023593C4FA359BC4FBF0180
:103B800063597C4F023009F465C0033009F479C0F1
:103B9000F901908101118DC0993F08F44FC09FEF4A
:103BA00090839C91933008F04BC01C92DB019C9158
:103BB000933008F048C01C92E1E0E80F8B3308F026
:103BC000E0E0F0E0E359FC4F9081933008F03FC013
:103BD00010828B3308F079C08F5F8093A9034D303A
:103BE000510524F00E941E04833021F48DE693E0F9
:103BF0000E940B078F81811154C1809169038B331F
:103C000008F00AC18F5F809369038E81811183C59B
:103C10000E94AE09843208F005C10E94AE099D8160
:103C2000891709F4FFC08091CD03873108F0F7C0F0
:103C30008F5F8093CD03ECCFABE397CF9A5FB0CF8C
:103C400092509C93B3CF9250FB019083B5CF92508A
:103C50009083BFCF9C919E3F40F09FEF9C93D901F2
:103C60009C91933020F41C9205C09F5FF7CF925037
:103C7000F9019083DB019C91933088F09250FB0115
:103C8000E7CFFB0190819E3F60F09FEF9083F901A9
:103C90009081933040F410829C91933038F41C92C0
:103CA00098CF9F5FF3CF92509083F6CF92509C9322
:103CB00090CF933038F410829C919330A0F29250C0
:103CC0009C93D8CF92509083F7CF80E086CF4D3031
:103CD000510524F00E941E04833009F58DE693E01F
:103CE0000E940B078091AB038E3CA8F0EDE6F3E059
:103CF00029EA33E09081933380F5108231962E17B4
:103D00003F07C1F782538093AB038091AA038333AB
:103D100038F51092AA038091B3038093B403909175
:103D2000A903011123C0E92FF0E0E359FC4F808182
:103D3000893FD0F08FEF80838091AC03981305C04A
:103D40008091B3038A5F8093B30381E0890F9B3333
:103D500008F080E08093A9034DCF92539083CECF9B
:103D600082538093AA03D7CF8A5FE5CF8EEF800F6F
:103D7000823058F711E0033009F010E08FEF890F1F
:103D8000911101C08BE3E82FF0E031E0033009F43A
:103D900030E0E359FC4F2081230F2083F090AC03E7
:103DA0008F1105C02091B303230F2093B3038031FB
:103DB00028F180512091AD03269526952695AEEAEF
:103DC000B3E033E040E05091B303E82FF0E061E06E
:103DD000722F7170711360E0E359FC4F7081760FA0
:103DE0007083F81201C0560F8823A1F081502695E8
:103DF0003F5F453029F4363040F304C0845DDACFAC
:103E0000383019F75093B3034F5F2D9130E04630AF
:103E1000D1F69BCF8BE3EBCF10926903F6CE1092D5
:103E2000CD03F6CE8D8181113CC00E949609883069
:103E300040F48091D803863008F087C08F5F80936C
:103E4000D8030E947E09823308F482C08B818130BE
:103E500041F50E946609833140F480910B048B3058
:103E600008F087C08F5F80930B048A818130C9F48A
:103E700089818A39B0F480911904893008F07CC0B6
:103E80008F5F809319048FE094E00E94DC09811118
:103E900008C080912704893008F071C08F5F80933B
:103EA000270411E0033021F011E0013009F010E0A7
:103EB0008F81853160F00BEED02ED80EF8E0FD1525
:103EC00030F0DF125FC08DE293E00E940B078DE2BD
:103ED00093E00E948C06882309F48DCA8F8181317A
:103EE00009F4C2C008F0ABC08F3009F4B3C0803110
:103EF00009F4B3C08F818D3108F418C1A3EEDA2E16
:103F0000D80E47E04D1508F411C1D412BEC010926E
:103F1000CE031092CF0389E18093D003E5EBF3E069
:103F200049E180E090E020E03191391708F0A9C024
:103F3000831708F4832F2F5F2831B1F79093CF03B5
:103F40008093CE034093D003F1C01092D80379CF71
:103F50000E947E099B81891709F478CF8091FB0329
:103F60008E3120F48F5F8093FB036BCF1092FB03A5
:103F700068CF10920B0479CF1092190484CF10925D
:103F800027048FCF1986809169030BE3081BBCE3DC
:103F9000AB2EBB24BA94C12C802F90E09C01235DF2
:103FA0003C4F7901898537E0D316E9F1482F50E07D
:103FB0000D2C02C0559547950A94E2F74170612F88
:103FC000C7010E940007D7018C91C81608F4C82EBB
:103FD0008B1508F4B82E0B3368F50F5FCE010996E8
:103FE0000E947F0AAA94A110D7CFEDE2F3E0AF01BF
:103FF000DA018D91AD019D01215031098B19D90153
:104000008C93B3E049365B0799F726EF2C1508F03F
:104010005ECF8081893080F41082319633E0E936BA
:10402000F307B9F754CF0E944A0941E08111C7CF85
:1040300040E0C5CF00E0D2CF88508083EECF8331FF
:10404000D9F0B8F08A3309F055CF612F617086E25C
:1040500093E007C0109322034DCF612F617083E27C
:1040600093E00E94390946CF612F617084E293E0AA
:10407000F8CF61E06127FACF612F617085E293E0AC
:10408000F0CF422F892F932F56CF19868091CD03E1
:1040900007E1081BF8E1AF2EBB24BA94C12C802F96
:1040A00090E0DC01AB54BC4F7D018985B6E0DB16A6
:1040B00009F466C0482F50E00D2C02C05595479575
:1040C0000A94E2F74170612FC7010E940007F701CF
:1040D0008081C81608F4C82E8B1508F4B82E073155
:1040E00008F055C00F5FCE0109960E947F0AAA947E
:1040F000A110D5CFE5EBF3E02DEC33E0BF01DB0100
:104100008D91BD01AD01415051098B19DA018C939C
:1041100026173707A1F7B7EFBC1540F48081883028
:10412000C0F510823196E617F707C1F78F818A3202
:1041300008F483C0E6EDDE2ED80EE3E0ED1508F4BA
:104140007CC0DE122DC01092D9031092DA0388E0F1
:104150008093DB03E1EDF3E048E080E090E020E0D5
:1041600031913917C8F4831708F4832F2F5F273054
:10417000B9F79093DA038093D9034093DB035DC0D2
:104180000E944A0941E081119ECF40E09CCF00E0AF
:10419000AACF87508083C6CF422F892F932FE6CF97
:1041A00081E089878091D80306E0081B77E0C72E5D
:1041B000EE24EA94F12C498550E00D2C02C055956F
:1041C00047950A94E2F74170802F90E09C012F52AE
:1041D0003C4F5901612FC9010E940007D5018C9104
:1041E000F81608F4F82E8E1508F4E82E063008F0BC
:1041F0004EC00F5FCE0109960E947F0ACA94C1107B
:10420000DACFE1EDF3E028ED33E0BF01DB018D9182
:10421000BD01AD01415051098E19DA018C93261769
:104220003707A1F7BBEFBF1540F48081843088F5D4
:10423000108231966E177F07C1F78F81843208F4A0
:104240007CC06CEDD62ED80EE6E0ED1508F475C0F6
:10425000DE1226C01092FC031092FD0380E28093D0
:10426000FE03ECEDF3E040E280E090E020E03191ED
:10427000391790F4831708F4832F2F5F2F31B9F784
:104280009093FD038093FC034093FE0356C000E02F
:10429000B1CF83508083CDCF422F892F932FEDCF85
:1042A00081E089878091FB030EE1081B5FE1C52E49
:1042B000EE24EA94F12C498550E00D2C02C055956E
:1042C00047950A94E2F74170802F90E09C012452B8
:1042D0003C4F5901612FC9010E940007D5018C9103
:1042E000F81608F4F82E8E1508F4E82E0E3108F0B2
:1042F0004EC00F5FCE0109960E947F0ACA94C1107A
:10430000DACFECEDF3E0AF01DA018D91AD019D0163
:10431000215031098E19D9018C93B3E04B3F5B07D3
:1043200099F728EF2F1548F48081873090F5108297
:10433000319633E0EB3FF307B9F78F818D3208F404
:104340007CC043EDD42ED80E46E04D1508F475C060
:10435000D41226C010920C0410920D048DE08093AC
:104360000E04EFEFF3E04DE080E090E020E03191CB
:10437000381790F4931708F4932F2F5F2C30B9F768
:1043800090930C0480930D0440930E0456C000E0FB
:10439000B1CF86508083CCCF422F982F832FEDCF83
:1043A00081E0898780910B040BE0081B3CE0C32E61
:1043B000EE24EA94F12C498550E00D2C02C055956D
:1043C00047950A94E2F74170802F90E0DC01A150FC
:1043D000BC4F5D01612FCD010E940007F501808176
:1043E000F81608F4F82E8E1508F4E82E0B3008F0B5
:1043F0004FC00F5FCE0109960E947F0ACA94C11078
:10440000DACFEFEFF3E02BE034E0BF01DB018D9179
:10441000BD01AD01415051098E19DA018C93261767
:104420003707A1F7B8EFBF1540F48081873090F5CA
:1044300010823196E617F707C1F7FF80E1E3EF1529
:1044400008F07BC02EEC922E9F0CF4E0F91508F4D6
:1044500074C09F1226C010921A0410921B048BE0A5
:1044600080931C04EFE0F4E04BE080E090E020E07B
:104470003191381790F4931708F4932F2F5F2A3057
:10448000B9F790931A0480931B0440931C0455C001
:1044900000E0B0CF86508083CCCF422F982F832F5F
:1044A000EDCF19868091190409E0081B9AE0C92E06
:1044B000DD24DA94E12C498550E0092C02C05595A1
:1044C00047950A94E2F74170802F90E09C01215FAC
:1044D0003B4F5901612FC9010E940007D5018C9102
:1044E000E81608F4E82E8D1508F4D82E093008F0E7
:1044F0004FC00F5FCE0109960E947F0ACA94C11077
:10450000DACFEFE0F4E029E134E0BF01DB018D9187
:10451000BD01AD01415051098D19DA018C93261767
:104520003707A1F7BAEFBE1540F48081853090F5CA
:10453000108231966E177F07C1F7E5E3EF1510F093
:104540000C94FB190AEC0F0D053010F00C94FB19BC
:10455000043039F510922804109229048BE08093DE
:104560002A04EDE1F4E04BE080E090E020E03191BE
:10457000381798F4931708F4932F2F5F2A30B9F760
:10458000909328048093290440932A040C94FB19E7
:1045900000E0B0CF84508083CCCF422F982F832F60
:1045A000ECCF19868091270499E0F92EF81A8AE059
:1045B000C82EDD24DA94E12C498550E0002E02C09B
:1045C000559547950A94E2F74170AF2CB12C612FB5
:1045D000C501835E9B4F0E940007F501E15FFB4F21
:1045E0008685E81608F4E82E8D1508F4D82EF8E034
:1045F000FF1538F1F394CE0109960E947F0ACA9400
:10460000C110DACFEFE0F4E029E134E0DF011E96DB
:104610008C911E978D191E968C931E9711962A17B2
:104620003B07A9F72AEF2E1510F00C94FB1986858D
:10463000853048F416863196AE17BF07C1F70C9443
:10464000FB19F12CD8CF84508687F5CF1092B30593
:104650008091B0059091B1058F359A4EF8F4809114
:10466000B0059091B10501969093B1058093B00586
:104670008091B0059091B10560E777E104D7892B6F
:1046800011F00C948B1A8091AE059091AF050196B4
:104690009093AF058093AE050C948B1A1092B105E0
:1046A0001092B0058091AE059091AF050196909360
:1046B000AF058093AE05DCCF83E384BD89E085BD83
:1046C0000C94B21A88B5882311F40C94B21A88B5E8
:1046D000815088BD81110C94B21A5D9A14BC15BC2E
:1046E0000C94B21A1092F4020C94C21A80EF0C943B
:1046F000FD1A4C919081941710F00C94121B8C9120
:1047000081500C94101B13E0002311F40C949519A4
:1047100081C812E0F9CF033009F0C6CB11E0D7CB46
:1047200010927C0410929D041092BE041092BF045B
:104730001092B3052091A6053091A7054091A805D8
:104740005091A9056091AA057091AB058091AC05C7
:104750009091AD05A1E0FBD62093A6053093A70567
:104760004093A8055093A9056093AA057093AB05E3
:104770008093AC059093AD05F6D651F58CE291E0AF
:10478000909393058093920510929405109295054D
:10479000109296051092970510929805109299051F
:1047A00010929A0510929B0510929C0510929D05FF
:1047B00010929E0510929F051092A0051092A105DF
:1047C0001092A2051092A3051092A4051092A505BF
:1047D0000895CF93DF93CDB7DEB760970FB6F89407
:1047E000DEBF0FBECDBF14BE0FB6F894A895809162
:1047F0006000886180936000109260000FBEF894A2
:1048000080ED95E008EB15E025ECF80121938F0190
:104810008E179F07D1F788B1806388B987B18F7CE5
:1048200087B9FF24F394F092800089E0809381009F
:10483000109289001092880010928B0010928A00CA
:10484000219A2998229A2A98239A2B981092C50087
:1048500087E68093C4001092C00088E08093C10076
:1048600086E08093C2008EED94E00E944A0E0E9482
:10487000420687EC94E00E944A0E0E9442068CB5E4
:104880008F7B8CBD809164008460809364008DB3C5
:104890008C7F8DBB8CB383608CBB3A98429A5698C0
:1048A0005E9A3898409A8EE994E00E944A0E0E94DF
:1048B00042063B98439825982D9881E794E00E9402
:1048C0004A0E0E94420653985B9A52985A9A399817
:1048D000419A54985C9A80917C00807F8360809399
:1048E0007C0087E080937A0080E480BF85E594E0D7
:1048F0000E944A0E0E94420672E0E72EE092B0004B
:1049000084E08093B10089EF8093B3001092B200ED
:10491000E092700089E394E00E944A0E0E944206F1
:1049200078948FE194E00E944A0E0E9442068FEF35
:1049300091E00E94540E8FED91E00E94540E0E946F
:1049400042060E94F70510922C0388EA91E6A0E047
:10495000B0E08093780490937904A0937A04B093A4
:104960007B04F0922B030E940C158091060380FFBC
:1049700074C387ED91E00E94540E8BEB91E00E948E
:10498000540E0E94420668E6D62ED0927C04F09225
:104990009D048EE080937D0484E00E9499030E9430
:1049A000BB10811126C0D0927C04F0929D04E0924D
:1049B0007D040E94BB1081111CC061E08EE994E06F
:1049C0000E94F90F8093BF041092BE04882389F0DF
:1049D000F092BE0480919E0486FF0BC0D0927C04AE
:1049E000F0929D04E0927D048F7B0E9499030E94C7
:1049F000BB108FE891E00E94540E8DE691E00E947A
:104A0000540E0E94420660E070E880E00E9492131B
:104A1000882309F42DC36FEF7FE180E00E94921399
:104A2000882309F425C366E37AE185E00E949213A6
:104A3000882309F41DC385E691E00E94540E85E4A5
:104A400091E00E94540E0E9442066CEA74E180E0FC
:104A50000E94490F64E673E180E00E94240F6AE23D
:104A600074E183E00E94490F69E872E183E00E94EB
:104A7000240F61E372E184E00E94240F65E674E193
:104A800084E00E94490F87ED9CE090934101809360
:104A9000400186EF96E190935F0180935E018CE880
:104AA0009FE0909373018093720190937D018093B6
:104AB0007C0162EF76E182E00E94490F6BEC7FE0BF
:104AC00082E00E94240F84E10E949E1585E10E94ED
:104AD0009E1586E10E949E1587E10E949E1588E141
:104AE0000E949E1589E10E949E158AE10E949E15F2
:104AF0008BE10E949E1580E00E94A30FF12C8F2D68
:104B00000E947816F394F7E0FF12F9CF60E080E09E
:104B10000E94D70C809146018823B9F042E050E012
:104B20006DEF73E0CE0101965BD48FEF93E068D414
:104B3000F82ECE0101960E94DE05F812A0C28981EE
:104B40009A81909303018093020188E893E10E9487
:104B50002C0689B1282F2071F22E84FD9DC284ED90
:104B600093E00E944A0E0E944206E12C8F2D8E0D8A
:104B70000E948716E39434E0E312F8CFF30E5CE171
:104B8000F512F3CF53E0F52E299A2A9A2B9A8CE24C
:104B900091E00E942C0629982A982B988CE291E0AB
:104BA0000E942C06FA94F110EFCF84EB93E00E9460
:104BB0004A0E0E94420686E0E3E2F2E0DE01119630
:104BC00001900D928A95E1F7CE0101960E94A913FA
:104BD00081E893E00E944A0E0E9442068FEF9FEF09
:104BE000909303018093020182E091E00E94DE0530
:104BF000F82E42E050E06DEF73E082E091E008D4DF
:104C00006F2D8FEF93E013D486E393E00E944A0E5A
:104C10000E9442060E94CF1284E193E00E944A0E55
:104C20000E94420680917A008F7780937A0080916B
:104C30007B00806480937B0080917C00807F836018
:104C400080937C008FB7F8942DE833E0309308030D
:104C5000209307038FBFE0ECF4E088E895E0119221
:104C600011928E179F07D9F71092880510928D0523
:104C700010928E0510928F051092900585E6809314
:104C800091051092890510928A0510928B05109259
:104C90008C0510929405109295051092960510922D
:104CA0009705109298051092990510929A05109206
:104CB0009B0510929C0510929D0510929E051092E6
:104CC0009F051092A0058CE291E09093930580934C
:104CD00092050E942F0710920E0310920D0310925E
:104CE00019031092180310921A0310921B031092CA
:104CF0001C0310921D0388EB9BE0A0E0B0E08093C2
:104D00001E0390931F03A0932003B09321031092DE
:104D10001503109214031092130381E08093110382
:104D20008093100310920F038093120310921603C6
:104D30008CE496E09093050180930401259A82EF1C
:104D400092E00E944A0E0E9442068FEA92E00E9480
:104D50004A0E0E94420684E992E00E94540E80911D
:104D6000B4059091B505009711F480ED95E0FE0132
:104D700031967F01BF01681B790B77FF02C070E09D
:104D800060E0072E000C880B990B0E94450D8CEB00
:104D900092E00E943B0D0E94420689E792E00E9449
:104DA000540E80910603C82E80FF7DC18EE492E0F0
:104DB0000E944A0E0E94420689E592E00E94540E2B
:104DC00084E192E0C1FC02C087E092E00E944A0EBA
:104DD0000E9442068FE192E00E944A0E0E94420623
:104DE00081ED92E00E944A0E0E94420681E4682E04
:104DF00091E2592E28E5C22E22E0D22E3CE2A32ECB
:104E0000B12C4AE0742EA8958091270380FFE5C05D
:104E10008091B4059091B505009711F480ED95E06F
:104E20004701881A990AE8EBF5E08191853C09F081
:104E30003DC10E171F07C9F790E4891691040CF4C1
:104E400064C180912B04813009F061C18091FC0222
:104E50009091FD0201969093FD028093FC028C32AA
:104E6000914008F454C180E395E00E944A0E0E94EC
:104E700042068091FF020E9478160E9405170E9448
:104E80000C15259B5AC080910D0390910E03823022
:104E900028F02091F502223008F441C18093F502F8
:104EA0008091270384FF3FC1809127038F7E8093E9
:104EB00027032598C7010E94360A8D81982F929565
:104EC0009F708F70979D800D11248093FA029E81B0
:104ED000292F22952F709F70279D900D112490935C
:104EE000F9029B878C878B81982F92959F708F708A
:104EF000979D800D11248D878A81982F92959F70A0
:104F00008F70979D800D11248E878981982F92959F
:104F10009F708F70979D800D112490E08053984F63
:104F2000988B8F87CE010B960E94A91381E695E09E
:104F30000E94170D0E94420625988091320181300F
:104F400009F046C080912B04811142C090917C00F1
:104F500040917A0050917B0080917B008F7B809301
:104F60007B0080917A00806880937A0060927C0058
:104F700080917A00806480937A0080917A0086FD27
:104F8000FCCF80917A00806480937A0080917A00CF
:104F900086FDFCCF209178003091790050937B0002
:104FA00040937A0090937C00529EC001539E900DD6
:104FB0001124845E9C40B60166D2C501861B970B06
:104FC0008B30910510F48BE090E062E00E94C70EF8
:104FD000809127038E7F809327038091270382FF90
:104FE00012CF99B08091050383FF32C180910901EE
:104FF000992D98279C7009F4B2C010920403109266
:10500000030310920203909209018091270384FF09
:105010008091270380912703877F809327038091C6
:105020002B04823009F0D9C18FB7F8948090000327
:10503000909001038FBF809108018C709091FB02CA
:105040008C3019F0992309F4A9C19111B3C1809151
:1050500027038B7F80932703D6CE83EB91E00E94BA
:10506000540E87E991E00E94540E0E944206C1CC82
:105070008DE391E00E94540E8AE191E0E2CC8CE550
:1050800092E00E943B0D0E9442068BE992E00E9452
:105090003B0D0E94420659CD8CE493E00E944A0EDB
:1050A0000E944206B1CD81E492E082CE10E084E21B
:1050B00095E00E94540E89E195E00E94540E0E94F2
:1050C0004206B40197FE02C070E060E0072E000CBB
:1050D000880B990B0E94450D80E195E00E94540ECB
:1050E0008DE095E0111102C083E095E00E944A0E28
:1050F0000E94420688E198E00FB6F894A895809344
:1051000060000FBE90936000FFCF11E0D0CF0E94EF
:10511000CF12882309F4B3CE80912B04B0CE8093B4
:10512000F5022598BDCE80910D0390910E0382303B
:1051300098F08FE795E00E94170D0E94420625988F
:105140008091F602823028F4809127038061809359
:1051500027031092F602F1CE8093F602EECE9091E4
:105160000403983020F49F5F909304034ECF9091F6
:1051700008019093070180930801282F29272C709C
:10518000B9F18C709C709C30B9F48C30A9F085EB2F
:1051900095E00E944A0E0E94420680912B048130C5
:1051A00059F41092FD021092FC028FB7F8941092FD
:1051B0000103109200038FBF8091050390910801B5
:1051C000292F2C7080FF2AC02C3041F482FF1CC094
:1051D00088EC95E00E944A0E0E94420680910503E9
:1051E000909108019C709C3019F4887F809305038E
:1051F000109204031092030310920203809105039E
:10520000877F8093050301CF83EE95E00E944A0ECD
:105210000E944206299A2B9A2A9AE0CF211104C0B3
:10522000816080930503DACF81FDD8CF93FF07C05B
:105230008091070183FD03C00E94060FCFCF92FF2C
:10524000CDCF8091070182FDC9CF0E94D10FC6CF7B
:1052500090910801492F4C704C30D1F120910203FC
:1052600030910303243F51E03507C0F42F5F3F4FD7
:1052700030930303209302038091080189258C70E9
:1052800009F4C3CE10920403109203031092020398
:1052900090920901809105038860B3CF411156C0F7
:1052A00082FD16C08460809305038FB7F894109236
:1052B0000103109200038FBF81E396E00E944A0E23
:1052C0000E94420680912B04813039F40E94051718
:1052D0001092030310920203CFCF8091FF02863019
:1052E00038F089EF95E00E944A0E0E944206EECF08
:1052F00080912B04813061F383E296E00E944A0E94
:105300000E94420681E080932B048091FE020E945D
:10531000920E1092FD021092FC028FB7F894109238
:105320000103109200038FBF1092FF0280910601CB
:10533000863120F460E086E10E94C70E80E00E9482
:1053400078168091FF020E94E70DC2CF80FDC0CF8A
:1053500092FD11C08260809305038BE496E00E9469
:10536000540E8FB7F89410920103109200038FBF70
:105370000E94D10FADCF93FDABCF82608093050328
:1053800086E696E00E94540E8FB7F89410920103BF
:10539000109200038FBF0E94060F9ACF60E08BE04F
:1053A0000E94C70E81E08093FB029092F8028092E7
:1053B000F7024DCE8091F7029091F802881A990A6F
:1053C00088E988168AE3980608F441CE1092FB0219
:1053D00060E080E00E94C70E3ACE80912B0437CE69
:1053E000DC01CB01FC01F999FECF06C0F2BDE1BDA5
:1053F000F89A319600B40D9241505040B8F7089594
:10540000F999FECF92BD81BDF89A992780B508958C
:10541000DC01A40FB51F4150504040F0CB01840F78
:10542000951F2E9105D041505040D8F70895262F52
:10543000F999FECF92BD81BDF89A019700B402168A
:1054400039F01FBA20BD0FB6F894FA9AF99A0FBE38
:105450000895262FF999FECF1FBA92BD81BD20BDB8
:105460000FB6F894FA9AF99A0FBE01960895991B0F
:1054700079E004C0991F961708F0961B881F7A954B
:10548000C9F780950895AA1BBB1B51E107C0AA1F4D
:10549000BB1FA617B70710F0A61BB70B881F991FD5
:1054A0005A95A9F780959095BC01CD010895A1E288
:1054B0001A2EAA1BBB1BFD010DC0AA1FBB1FEE1F8E
:1054C000FF1FA217B307E407F50720F0A21BB30BD9
:1054D000E40BF50B661F771F881F991F1A9469F755
:1054E00060957095809590959B01AC01BD01CF01B1
:1054F0000895052E97FB16F400940FD057FD05D0A4
:10550000D6DF07FC02D046F408C050954095309590
:1055100021953F4F4F4F5F4F08959095809570951F
:1055200061957F4F8F4F9F4F0895EE0FFF1F05909E
:10553000F491E02D099423D0B7FF0895821B930BBB
:105540000895B7FF2BC02AD0821B930B0895002427
:10555000A7FD00942A0F301D401D501D601D701DB9
:10556000801D901D08950024A7FD00942A17300582
:105570004005500560057005800590050895A29FBF
:10558000B001B39FC001A39F700D811D1124911D17
:10559000B29F700D811D1124911D0895F0DFA59F0C
:1055A000900DB49F900DA49F800D911D112408951E
:0455B000F894FFCF9D
:1055B400FF16FFFFFE07160C0C0C00000200000093
:1055C40000000000000009000000000000000000CE
:1055D40005000000000000000000090000000000B9
:1055E40000000500080100000000000001000101A6
:1055F40000000000000000000101000000000000A5
:105604000100010100000000000000000300000090
:105614000000000000000301000000000000000082
:105624000201000000000000000009010000000069
:105634000000000003000000000000000101090058
:105644000000000000000000010000000000000055
:105654000101090000000000000002000900000030
:10566400000000000000090000000000000002002B
:10567400090000000000000006000900000000000E
:1056840000000000170100000000000000000301FA
:1056940000000000000000001701000000000000EE
:1056A40000000301000000000000000017010000DA
:1056B40000000000000003010000000000000000E2
:1056C40017010000000000000000030100000000BA
:1056D4000000F021101608E907535452414E4B4183
:1056E4003A200020484F444E4F5459204E554D49BE
:1056F40054524F4E4F563A004E6173746176756A38
:10570400656D206A6173206E613A20004E65706F8A
:10571400646172696C6F207361206E616369746186
:1057240074206B616C69627261636E75207461626E
:10573400756C6B7520707265204D6F6E69746F7235
:10574400207320454550524F4D2E0053707573748D
:10575400616D65206175746F6D617469636B75202B
:105764006B616C696272616369752E002062797481
:045774006573000059
:00000001FF
