:2000000008C500002EC500002CC500002AC5000028C5000026C5000024C500000C94641C5F
:2000200020C500001EC500001CC500001AC5000018C5000016C5000014C5000012C50000D0
:2000400010C500000EC500000CC500000AC5000008C5000006C5000004C5000002C5000030
:200060000C94D01BFEC400006164644E65774D696E757465546F436F756E746572730064F4
:200080006973706C617954696D6546726F6D436F756E74657273005370C3BAC5A174616E6F
:2000A000696520646961676E6F7374696B792E2E2E2028726F7A7376696563616E696520A8
:2000C00076C5A165746BC3BD6368207365676D656E746F7620646973706C656A6129005BCD
:2000E000435249544943414C5D20006164644E756D6974726F6E5365676D656E744D6173BF
:200100006B3A204E65706C61746E7920696E646578206E756D6974726F6E753A20005B458C
:2001200052524F525D200056594252415459204E554D4954524F4E204349534C4F3A20003C
:200140004C45465420425554544F4E2052454C4541534544000002000009000005000009FA
:2001600000000101000801000101000101000300000301000201000901000300010900004F
:200180000100010900000900000900000900000900001701000301001701000301001701E0
:2001A000000301001701000301524947485420425554544F4E2052454C454153454400C37D
:2001C0009A766F646EC3A120646961676E6F7374696B61207370757374656EC3A120E280A4
:2001E0009420696E696369616C697AC3A16369612070726562696568612E2E2E005072C38F
:20020000BA646F76C3BD2073656E7A6F72206E65626F6C206EC3A16A64656EC3BD210A002C
:200220005B5741524E5D200053656E7A6F72207072C3BA647520696E696369616C697A6F8A
:2002400076616EC3BD2E0A005B494E464F5D2000496E696369616C697AC3A16369612073DD
:20026000656E7A6F7261207072C3BA64752E2E2E0A005B494E464F5D2000525443206D6F1A
:2002800064756C206E65626F6C206EC3A16A64656EC3BD210A005B5741524E5D20005254F5
:2002A00043206D6F64756C20696E696369616C697A6F76616EC3BD2E0A005B494E464F5D8E
:2002C0002000496E696369616C697AC3A163696120493243207A6265726E6963652E2E2EF7
:2002E0000A005B494E464F5D20004B616C69627261636961207A6C7968616C613A206765D2
:20030000744C69745365676D656E7473436F756E7428292076726174696C6F20302E0A00F7
:200320005B4552524F525D20004E65707269706F6A656EC3BD00507269706F6A656EC3BDFA
:20034000002D2D2D2D2D2D2D2D2D2D2D2D2D2D2D2D2D2D2D2D2D2D2D2D2D2D2D2D2D2D2D2A
:200360002D2D004E65707269706F6A656EC3BD00507269706F6A656EC3BD0053656E736FBA
:2003800072207072C3BA64752028494E41323139293A202020202020202000525443204D1E
:2003A0006F64756C2028445333323331293A2020202020202000566FC4BE6EC3A120706194
:2003C0006DC3A4C5A52052414D3A202020202020002D2D2D2D2D2D2D2D2D2D2D2D2D2D2D42
:2003E0002D2D2D2D2D2D2D2D2D2D2D2D2D2D2D2D2D2D005370C3BAC5A1C5A5616E69652006
:20040000686F64C3AD6E20646F6B6F6EC48D656EC3A921004443463737207072696AC3AD57
:200420006D61C48D20696E696369616C697A6F76616EC3BD2E005370C3BAC5A1C5A5616E80
:200440006965204443463737207072696AC3AD6D61C48D612E2E2E005A6F6272617A6F76C7
:20046000616E696520C48D6173752E2E2E004E61C48DC3AD746176616E696520756C6FC50E
:20048000BE656EC3BD6368206B6F6E6669677572C3A16369C3AD207A20454550524F4D2EAB
:2004A0002E2E0052657365746F76616E6965206B616C69627261C48D6EC3BD636820C3BABE
:2004C00064616A6F762073656E7A6F7275207072C3BA64752E0052657365746F76616E692C
:2004E000652063617375206120646174756D75206E612070726564766F6C656E6520686F60
:20050000646E6F74792E00524553455420746C61C48D69646C6F20626F6C6F2073746C6102
:20052000C48D656EC3A92C20706F75C5BE696A656D652076C3BD63686F647A696520686F0B
:20054000646E6F7479206E6173746176656EC3AD2E00C39A766F646EC3A120646961676EB4
:200560006F7374696B6120646F6B6F6EC48D656EC3A12E00496E696369616C697AC3A1639C
:200580006961206D6F64756C6F762E2E2E005A6170C3AD6E616E696520646973706C656A30
:2005A000612E2E2E005370C3BAC5A1C5A5616E6965207072657275C5A1656EC3AD2E2E2E22
:2005C000004B6F6E6669677572C3A163696120C48D61736F7661C48D612E2E2E00496E695E
:2005E0006369616C697AC3A16369612076737475706E6F2D76C3BD737475706EC3BD636807
:200600002070696E6F762E2E2E004B6F6E6669677572C3A16369612070696E6F762044433B
:20062000463737207072696AC3AD6D61C48D612E2E2E004B6F6E6669677572C3A1636961E1
:200640002050574D206B616EC3A16C7520707265206A61732E2E2E004B6F6E666967757253
:20066000C3A1636961207A6265726E69636520726567697374726F762070726520646973AB
:20068000706C656A2E2E2E00446566696E6F76616E6965207065766EC3BD6368206C6F6737
:2006A00069636BC3BD636820686F646EC3B47420707265206E65706F75C5BE6974C3A9206A
:2006C00070696E792E2E2E005370C3BAC5A1C5A5616E696520686F64C3AD6E2E2E2E002D33
:2006E0002D2D2D2D2D2D2D2D2D2D2D2D2D2D2D2D2D2D2D2D2D2D2D2D2D2D2D2D2D2D2D2D5A
:200700002D2D2D00434F52525550544544004F4B002043616E6172793D0052414D212046DE
:200720007265653D005B435249544943414C5D2000556B6F6E636F76616E69652065646949
:20074000742072657A696D75206B766F6C69206361736F76656D75206C696D6974752E2E91
:200760002E00446F736C6F206B206E616470727564752120567970C3AD6E616E69652064BD
:200780006973706C656A61210A005B494E464F5D2000446F736C6F206B20706F64707275FC
:2007A00064752C2074656461206E656A616B79207365676D656E7420736120767970616C81
:2007C000696C20616C65626F206E756D6974726F6E20626F6C206F64706F6A656E792E0A68
:2007E000005B494E464F5D20005A6F6272617A6F76616E6965206E6F7665686F20636173F5
:20080000752E2E2E005B54696D6572735D2044434637372073796E6368726F6E697A616317
:200820006961207370757374656E612E002C20616B6369613D00207370757374656E792CD4
:2008400020686F64696E613D005B54696D6572735D2054696D657220005B4E696768744DB9
:200860006F64655D205072657A6572616E696520636173752E0A005B494E464F5D20004165
:200880004E5920425554544F4E205052455353454400424F544820425554544F4E53204C97
:2008A0004F4E472052454C4541534544007B6057766C3E3F707F7E5C041BFF5465706C6F73
:2008C00074613A20002E002E005A6F6272617A756A656D20766965773A2000424F544820E2
:2008E000425554544F4E532052454C454153454400424F544820425554544F4E53204C4F2D
:200900004E47205052455353454400524947485420425554544F4E204C4F4E47205052453B
:200920005353454420004C45465420425554544F4E204C4F4E47205052455353454420009B
:20094000206F64706F6A656EC3BD2E0020707269706F6A656EC3BD2E00494E413231390031
:20096000525443004D6F64756C20005B494E464F5D20005A6F6272617A756A656D2073703D
:200980006174206361732E2E2E00656E746572456469744D6F6465005B4E696768744D6F67
:2009A00064655D20416B7469766F76616E792E0A005B494E464F5D200065786974456469BD
:2009C000744D6F6465005B4E696768744D6F64655D20556B6F6E63656E792E0A005B494E51
:2009E000464F5D200020616B6369613D0020756C6F7A656E793A20686F64696E613D005BF4
:200A000054696D6572735D2054696D6572200000552811241FBECFEFD8E0DEBFCDBF12E0A4
:200A2000A0E0B1E0EEEFF3E602C005900D92AA39B107D9F725E0AAE9B2E001C01D92AC3810
:200A4000B207E1F715E0C9E0D5E004C02197FE010E94BA31C830D107C9F70E94B0280C9400
:200A6000FD31CECAE091920480919304E81750F481E08E0F80939204F0E0E059FB4F8289B9
:200A800090E008958FEF9FEF0895E0918104E03150F491E09E0F90938104F0E0E059FB4F3C
:200AA000818381E0089580E008955F982898FC0194E050E040E0208130E0042E02C0359550
:200AC00027950A94E2F720FF0DC02C9A289A28984F5F5F4F4830510571F7915031969111D3
:200AE000E8CF08952C98F2CFE9E3F4E0119284E0E334F807D9F710924304109245048BE051
:200B00008093460410924404E7E4F4E0119284E0E135F807D9F710925104109253048BE0A8
:200B2000809354041092520408958091D5039091D403891B990B0C9754F08091D3038A58DC
:200B40009091D603891B8C3318F08C53FCCF8FEF0895EF92FF920F931F932FB7F8944091C2
:200B6000610550916205609163057091640580915D0590915E05A0915F05B0916005841737
:200B80009507A607B70738F02FBF80E01F910F91FF90EF9008957A018B01E81AF90A0A0BBC
:200BA0001B0BD801C7012FBF20E0411551056105710531F076956795579547952F5FF5CFB6
:200BC000222331F02695B695A79597958795F8CF8F3F9105A105B105C9F2C0F28FEF90E043
:200BE000A0E0B0E0D3CF8FB7F8949091370420913604291718F08FBF80E00895392F321BE2
:200C0000232F8FBF80E09D3140F49D3008F445C0832F869586950895832F969531E0380F4A
:200C20009111FACF8D3068F08D3029F18E3031F181E190E0289FA001299F500D1124852F35
:200C40000895893060F08B3028F08C30D1F485E190E0F0CF8A30C1F489E190E0EBCF87304B
:200C600028F08830A1F480E290E0E4CF863091F48AE290E0DFCF83E190E0DCCF82E190E073
:200C8000D9CF87E190E0D6CF8CE190E0D3CF84E290E0D0CF83E390E0CDCF993048F03B305D
:200CA000A0F43730A0F481E0343008F4A5CF0895953030F0363058F481E02330C0F79CCF66
:200CC0009330D0F7832F8695089583E0089582E0EECF8FB7F89490912704209126042917C8
:200CE00018F08FBF80E00895392F321B232F8FBF80E09D3140F49D3008F445C0832F86954F
:200D000086950895832F969531E0380F9111FACF8D3068F08D3029F18E3031F181E190E0DD
:200D2000289FA001299F500D1124852F0895893060F08B3028F08C30D1F485E190E0F0CFAE
:200D40008A30C1F489E190E0EBCF873028F08830A1F480E290E0E4CF863091F48AE290E0D8
:200D6000DFCF83E190E0DCCF82E190E0D9CF87E190E0D6CF8CE190E0D3CF84E290E0D0CF5A
:200D800083E390E0CDCF993048F03B30A0F43730A0F481E0343008F4A5CF0895953030F02F
:200DA000363058F481E02330C0F79CCF9330D0F7832F8695089583E0089582E0EECF8FB752
:200DC000F8949091F9032091F803291718F08FBF80E00895392F321B232F8FBF80E09D31A8
:200DE00040F49D3008F445C0832F869586950895832F969531E0380F9111FACF8D3068F0B7
:200E00008D3029F18E3031F181E190E0289FA001299F500D1124852F0895893060F08B3072
:200E200028F08C30D1F485E190E0F0CF8A30C1F489E190E0EBCF873028F08830A1F480E203
:200E400090E0E4CF863091F48AE290E0DFCF83E190E0DCCF82E190E0D9CF87E190E0D6CF33
:200E60008CE190E0D3CF84E290E0D0CF83E390E0CDCF993048F03B30A0F43730A0F481E0B0
:200E8000343008F4A5CF0895953030F0363058F481E02330C0F79CCF9330D0F7832F86951D
:200EA000089583E0089582E0EECFFC0121E180E047E0215071F09191982738E0892F880FD6
:200EC00097FF03C0990F892F84273150982FB1F7F0CF089510926B0481E080936A041092CD
:200EE00065043C983D98449A459AE9EBF0E080818C7F808388E48093B80085E48093BC0001
:200F00000895CF93DF9381E08093560380915503882391F0D091B800C091BA008091BC000D
:200F20008A7B8093BC003C983D9844984598D2DFD093B800C093BA00DF91CF910895909312
:200F400054038093530383B7817F83BF83B7816083BF8091530390915403892B11F0889547
:200F6000F8CF83B78E7F83BF08958091C00086FFFCCF8091C00080648093C0000895FC0141
:200F80009AE0A3E2B3E001900D929A95E1F710924503109244038091220380618093220366
:200FA0000895259B08C000B605FE07C080912203877F8093220380E00895809122038860FD
:200FC0008093220381E00895FC0180818C3398F48181883180F4828181508F3160F4838177
:200FE00081508C3040F424813581205D374081E02436310508F080E008959DEC899F9001B9
:201000001124232F332726952695269596EF299F800D112444E0220F331F4A95E1F7822BA4
:201020000895982F92959F708F702AE0929F800D11240895FC013FB7F89496AD85AD8917E9
:2010400018F03FBF80E00895292F281B3FBF80E09D3140F49D3008F445C0822F86958695DD
:201060000895832F969531E0380F9111FACF8D3068F08D3029F18E3031F181E190E0289FCE
:20108000A001299F500D1124852F0895893060F08B3028F08C30D1F485E190E0F0CF8A3058
:2010A000C1F489E190E0EBCF873028F08830A1F480E290E0E4CF863091F48AE290E0DFCF81
:2010C00083E190E0DCCF82E190E0D9CF87E190E0D6CF8CE190E0D3CF84E290E0D0CF83E33F
:2010E00090E0CDCF993048F02B30A0F42730A0F481E0243008F4A6CF0895953030F026300B
:2011000058F481E02330C0F79DCF9330D0F7822F8695089583E0089582E0EECFFC0190818C
:20112000442319F0690F60830895961B9F5F90830895FC0115AE16AE8DE387AFDF0180E07E
:201140009D9126AD921738F025AF96AF87AF8F5F8C33B1F7089525AD2917C8F795AFF7CFA1
:20116000FC01DC01CC961D92A817B907E1F714AE16AE8DE387AF15AE08958CE291E090939F
:2011800067058093660587E993E0EADF8FEF8093DD038093DE0387E593E0E2DFEFEDF3E005
:2011A00087EF93E011928E179F07E1F71092F7031092F90389E18093FA031092F803E6E069
:2011C000F4E0119284E0E532F807D9F7109225041092270480E280932804109226041092A7
:2011E000FB031092FC031092FD031092FE031092FF031092000410920104109202041092D0
:20120000040488E08093050410920304E9E2F4E085E394E011928E179F07E1F7109235047D
:20122000109237048DE080933804109236045CCC80917A008F7780937A0080917B00806483
:2012400080937B0080917C00807F836080937C008FB7F8942DE833E030932E0320932D0331
:201260008FBFE4E9F4E08CE595E0119211928E179F07D9F710925C05109261051092620524
:20128000109263051092640585E68093650510925D0510925E0510925F0510926005109299
:2012A00068051092690510926A0510926B0510926C0510926D0510926E0510926F0510929A
:2012C0007005109271051092720510927305109274058CE291E090936705809366054DDF1B
:2012E0001092300310922F0310923B0310923A0310923C0310923D0310923E0310923F03FC
:2013000088EB9BE0A0E0B0E08093400390934103A0934203B093430310923703109236035A
:201320001092350381E0809333038093320310923103809334031092380381ED97E09093DC
:201340001101809310018FEB97E09093450380934403259A10924703109246030895FC0171
:201360003FB7F89494858385891718F03FBF80E00895292F281B3FBF80E09D3140F49D305F
:2013800008F445C0822F869586950895832F969531E0380F9111FACF8D3068F08D3029F13C
:2013A0008E3031F181E190E0289FA001299F500D1124852F0895893060F08B3028F08C30D0
:2013C000D1F485E190E0F0CF8A30C1F489E190E0EBCF873028F08830A1F480E290E0E4CF0F
:2013E000863091F48AE290E0DFCF83E190E0DCCF82E190E0D9CF87E190E0D6CF8CE190E0D4
:20140000D3CF84E290E0D0CF83E390E0CDCF993048F02B30A0F42730A0F481E0243008F4B7
:20142000A6CF0895953030F0263058F481E02330C0F79DCF9330D0F7822F8695089583E0E6
:20144000089582E0EECF80E00895FC01828190E0813039F491E0611104C0978193FB992778
:2014600090F98181813081F48481811106C081E02581211107C080E005C08130E1F725810A
:201480002111F9CF89230895873021F0843011F0803139F48481813059F3823061F781E041
:2014A000EECF80E00895FC016281623308F049C09181933108F045C080818A3908F041C06C
:2014C000862F82958F702AE06F70362F829F300D1124492F933058F550E0465F5F4F2081B4
:2014E000822F82958F702F706AE0869F200D112481E0933008F080E0281B6AE1649FC001E7
:20150000659F900D112402976AE070E00E945531822F830F26952695820F860F873090F084
:201520008750682F6695669566958770F6CF4F70892F82958F70829F400D11244250550B6E
:20154000CECF8FEF08950F931F93CF93DF93EC01AADF811101C087E08B8319810A81133005
:20156000C8F48F818E7F8F83053228F0CE019BDF882309F443C08F818B7F8F8360E0CE0102
:2015800064DF9F8180FB93F99F83DF91CF911F910F9108951330A9F4053218F3CE0183DFAF
:2015A000882349F0202F281B330B25323105CCF28F818160D8CF91E08C818230D0F490E030
:2015C00018C01031A8F3103161F6053288F3CE016ADF882339F0202F281B330B25323105C4
:2015E0003CF3BFCF8C81823009F4C0CF91E0823030F78F8190FB80F98F83B8CF1330A1F414
:201600008F812C81982F917080FF07C02330B1F491E02D81222399F011C0213081F491E012
:201620002D8121110CC00AC0103179F48F812C81982F917080FF06C0223089F390E090FBF3
:2016400082F99BCF2230D9F7E3CF133108F493CF95CFDC011196EC91E150E23148F5F0E079
:20166000EC5CF44F0C94BA315A0B480B5A0B460B5A0B460B5A0B5A0B460B580B580B580BEC
:20168000580B580B580B5A0B460B5A0B8EE10895FC018081882381F0982F92959F708F70E4
:2016A000FAE09F9F800D1124837031F48DE1089580E008958FE108958CE10895FC0190810B
:2016C000662339F021E09F3709F420E0920F9083089581E092380CF480E0981BF8CF982F67
:2016E0009F7082958F709827892F8370969596959827892F8170969589270895282F6AE084
:201700000E943C3196EF899F200D11248295807F2F70822B08958091370490913604891B61
:20172000990B029774F08091380490913504890F9927991F01966CE070E00E9455318F5F08
:20174000DDCF8FEF08958091270490912604891B990B029774F08091280490912504890FD7
:201760009927991F01966FE170E00E9455318F5FC5CF8FEF08958091040490910304891B10
:20178000990B029774F08091050490910204890F9927991F019667E070E00E9455318F5F13
:2017A000ADCF8FEF08958091F9039091F803891B990B02976CF08091FA039091F703890F6B
:2017C0009927991F019668E170E00E94553196CF8FEF08958091950390919403891B990B10
:2017E00002976CF08091960390919303890F9927991F01966CE370E00E9455317FCF8FEF59
:201800000895FC0184859385891B990B02975CF085859285890F9927991F01966AE070E07E
:201820000E9455316BCF8FEF0895CF9389E394E0E8DFC82F87E494E0E4DFCF3F39F08F3F84
:2018400019F08295807F8C0FCF9108958FEFFCCFCF93DF93EC0169D98E83BCDF8D83A3DF47
:201860008C8389DF8B836FDF8A8355DF8983DDDF88838F8190910D0390FB81F98F8391E0B8
:2018800080910E0318160CF090E08F8190FB82F990910F038E7F97FF81608F8391E080912B
:2018A000100318160CF090E08F8190FB83F98F83DF91CF910895FC019081292F2F70907FD1
:2018C000293028F42F5F2F70922B90830895908392959F70993020F49F5F9295907FF5CFDB
:2018E000108208950F931F93CF93DF93FC012581293530F40596DF91CF911F910F91DBCF07
:201900002935A1F4EC0115829481878182FF17C080FD11C0913099F48F010C5F1F4FC8010D
:20192000CADFC801C8DF8F8181608F83DF91CF911F910F910895923011F48E7FF6CF933270
:2019400018F4CE010496D7CF933281F71C828B81873098F4CE010396AEDF1A81812F8295EB
:201960008F701F70FAE08F9F100D1124CE0171DE181740F4CE010296BECF873071F781E08A
:201980008B83EBCF1813D2CF81E08A839981923118F4CE010196AFCF923141F68983888169
:2019A000893910F4CE01A7CF893909F0BFCF1882BDCF8F929F92AF92BF92CF92DF92EF9276
:2019C000FF920F931F93CF93DF93CDB7DEB72A970FB6F894DEBF0FBECDBF8C01DC01159618
:2019E0008C9115978F70B82E1696EC91E0908405F09085052E2F30E050E040E025503109A1
:201A000041095109ACE9BFEF0E94E1319B01AC012E0D3F1D411D511D69017A012B2D30E032
:201A200050E040E080918605281B310941095109A0E9B8EE0E94E131C60ED71EE81EF91ED0
:201A400031E3C31635E7D306E104F1043CF040E6C41A4AEED40AE108F108F2CF51EDC516C8
:201A60005AE8D5065FEFE506F5063CF480E6C80E8AEED81EE11CF11CF1CFD0920C03C092AE
:201A80000B03E53009F095C061E0C801DEDC882329F080910A038D7F80930A0380910A03E5
:201AA00081FF52C180910A0380FF45C180918205909183058E34914008F473C080910B03CE
:201AC00090910C03181619060CF464C080910B0390910C038C3F9F4F0CF063C08FB7F8946C
:201AE000E0902D03F0902E038FBFA0910B03B0910C0340918205509183052AE63AE00E942B
:201B0000CF319A0150E040E00E949E314901809182059091830560918205709183058759FD
:201B2000954F0E9455316093090380910903811103C081E080930903C701881999098033EA
:201B4000F8EF9F0714F480E398EF2FB7F894813D37E0930714F080ED97E090932E038093D6
:201B60002D032FBF88EB9BE0909367058093660580E395E7A0E0B0E08093400390934103A0
:201B8000A0934203B093430380910A038D7F80930A030FC080910B0390910C0305970CF044
:201BA0009DCF8091820590918305863D944108F095CFE0904403F0904503E114F10411F119
:201BC000D80116968C919ADD8F83F80185818E8384818D8383818C8382818B8381818A8382
:201BE000808189838781982F9170988783FB992790F99A8782FB882780F98987CE010196E6
:201C0000F7010995D80116968C918F3009F080C080912F0390913003892B09F479C0809102
:201C20002F0390913003019709F472C088E0F801DE01119601900D928A95E1F7CE010196E3
:201C400051DECE0101967FDC988588E092FF80E090FF92C0806193FD806480688093D70313
:201C60001E81812F3CDD882309F480C010681093D8031D81812F33DD882309F479C010646B
:201C80008B8180FF77C010681093D903BC80CB808C2D8695B0E2BB9E90011124822B8093BF
:201CA000DA030981E02EF12CC70125E0880F991F2A95E1F7DA808D298093DB038C2D8F7026
:201CC0000EDD182F8C2D82958F7009DD18278D2D8F7005DD18278D2D82958F7000DD182718
:201CE0008B2DFDDC1827802F8F70F9DC1827802F82958F70F4DC33E0F594E7943A95E1F7FF
:201D0000181711F06894E5F8E092DC031092DD032A960FB6F894DEBF0FBECDBFDF91CF9110
:201D20001F910F91FF90EF90DF90CF90BF90AF909F908F9008958091820590918305863DFA
:201D4000944108F436CF20CF80910A0380FF31CF1092850510928405109283051092820577
:201D6000B092860580910A03826011CF1F777FCF1F7B86CF1F7788CF80626DCFFC018681D4
:201D80008B3330F48F5F86838F30B1F4CF01DBCB978193FF0BC08B3349F42581211106C082
:201DA0008CE38683892F877F878308958B53823018F41682CF0196CD08956E3060F4E62F3B
:201DC000F0E0E355F74FE491843029F0A82FB0E0AC50BD4FEC930895CF93DF936FB7F89462
:201DE000A7EDB1E030E020E0C1E0D0E07D9190E080E0AE01082E01C0440F0A94EAF747239D
:201E000009F040E1FC01E20FF31FE455FD4F408301968830910569F7285F3F4F203231057E
:201E200029F780915103813051F080EF8093090181E08093ED026FBFDF91CF91089584E13C
:201E4000F5CF9FB7F8942091EF02281721F08093EF021092F0029FBF08959FEF960F262FCF
:201E600030E08230A1F0809180009E3F28F4806880938000299806C08F77809380006F3F3C
:201E8000C9F7299A30938900209388000895809180009E3F28F48062809380002A9806C014
:201EA0008F7D809380006F3FC9F72A9A30938B0020938A000895EF92FF921F93CF93DF9391
:201EC00010913601193008F018E0C0910701CC2369F12091880030918900E12EF12CD0E0F0
:201EE0002E9DC0012F9D900D3E9D900D1124BE010E94553181E0B1DF20918A0030918B00E1
:201F0000E29EC001E39E900DF29E900D1124BE010E94553182E0A1DF8091EF02819FC00154
:201F20001124BE010E946931862F8BDF10930701DF91CF911F91FF90EF900895CF92DF92AA
:201F4000EF92FF920F931F93CF93DF93062F142FC0910701D0E0282F30E0DE010E94C031ED
:201F6000C12CD12C7601CA94A70196010E949E31622F81E072DF9E01A02FB0E00E94C0311E
:201F8000A70196010E949E31622F82E066DF9E01A12FB0E00E94C031A70196010E949E3117
:201FA000822FDF91CF911F910F91FF90EF90DF90CF9047CF80915003813041F480914B03B5
:201FC000813021F44FEF6FEF8FEFB8CF40E060E080E0FBCF9091C00095FFFCCF8093C600F7
:201FE00081E090E008958DE0F5DF8AE0F3CF0F931F93CF93DF938C01D0E0C0E0F801EC0F0D
:20200000FD1F8491882319F0E5DF2196F7CFCE01DF91CF911F910F910895E9CF0F931F9302
:20202000CF93DF93009769F0EC018C01C8018C1B9D0BF80121918F01222329F0822FCADF57
:20204000F5CF90E080E0DF91CF911F910F910895CF93DF93E3DFEC01C6DFCE010296DF9130
:20206000CF9108958F929F92AF92BF92FF920F931F93CF93DF93CDB7DEB7A1970FB6F89424
:20208000DEBF0FBECDBF19A29B01AC01F12C97FF09C022273327A901261B370B480B590B43
:2020A000FF24F3942115310541055105E9F480E388A38E01005E1F4FFF2021F0F8018DE210
:2020C00082938F01C801AADFA1960FB6F894DEBF0FBECDBFDF91CF911F910F91FF90BF908D
:2020E000AF909F908F9008958E010F5D1F4F8AE0882E912CA12CB12CCA01B901A501940106
:202100000E947C31605DF80162938F01211531054105510589F7D0CFCF93DF93BC01990FD5
:20212000880B990B9FDFEC015EDFCE010296DF91CF910895CF92DF92EF92FF920F931F93B4
:20214000CF93DF93CDB7DEB7A1970FB6F894DEBF0FBECDBF282F30E050E040E019A28E0112
:202160000F5D1F4F8AE0C82ED12CE12CF12C2115310541055105B1F480E388A38E01005ED6
:202180001F4FC8014BDFA1960FB6F894DEBF0FBECDBFDF91CF911F910F91FF90EF90DF90C3
:2021A000CF900895CA01B901A70196010E947C31605DF80162938F012115310541055105CD
:2021C00089F7DFCFEF92FF920F931F93CF93DF93D82F8AEE91E022DF8D2FACDF84EF91E07B
:2021E0001DDFDD0FDD0F0AE912E0C0E087E0E82E82EF91E013DFEC2FED0FEE9EF00111246C
:20220000ED5EFE4FF0808F2D95DF6F2D8C2FD5DD80914B03C81308C080915103813021F450
:20222000F801808180688083CF5F0F5F1F4FC430F9F681E392E00CDF0E94B507CDDDDF9193
:20224000CF911F910F91FF90EF90B4CE0F931F93CF93DF93D0E0C0E0009761F08C01D0E0A1
:20226000C0E0F801EC0FFD1F8491882319F0B2DE2196F7CFCE01DF91CF911F910F9108954C
:20228000CF93DF93E3DFEC01AEDECE010296DF91CF910895DBCFCF93DF9390910803292F59
:2022A00030E0082E02C0359527950A94E2F72170261759F121E030E0082E01C0220F0A942A
:2022C000EAF76623F9F0292B20930803C62FD82F8BE699E0DFDF84E699E0DCDF0E94B507F9
:2022E00080E699E0DD2311F089E599E0D3DF8CE499E0C11102C080E499E0C2DFDF91CF919A
:202300000C94B50720952923DFCFDF91CF910895CF93C82FE0914B03E430B0F08EE191E099
:20232000B9DF8BEE90E0B6DF0E94B507C430B8F08EE191E0AFDF8BEE90E0ACDF0E94B5074D
:20234000C0934B03CF9136CEF0E0EC50FD4F9081892F8F77981751F380833EDDE7CFEC2F6F
:20236000F0E0EC50FD4F9081892F8068981741F3808332DDE5CF87E990E082DF0E94B5070C
:20238000EAEBF8E08491A4EFB2E08C93849111968C931197849112968C931297E491139611
:2023A000EC931ACDCF93DF93C82FD62F8FE790E067DF0E94B507A4EFB2E020E030E04AE0FE
:2023C0008EEF820F823040F08D2F222341F0642F0E943C31892F06C08C2F2230C1F7642F63
:2023E0000E943C31E82FF0E0E355F74F54918D91851729F0CD010197FC01508331E02F5FDC
:202400002430F1F6332319F0DF91CF91E5CCDF91CF91089583E799E033DF0E94B50710923F
:20242000480360914D0380914C03BCCFCF93C0E0882321F0C82F8D3208F1CCE280910A01EE
:202440008C17D1F080910A01C81760F080910A018C1790F480910A012C2F281B330B621719
:20246000130654F489E092E0D9DD8C2F63DEBBDD0E94B507C0930A01CF9108958530F0F682
:20248000C5E0DCCF80E491E0FBDE0E94B50780915103813071F480914B038F5F837038DF0E
:2024A00087E291E0F7DE80914B0344DE9CDD0C94B50780912F01811114C080915103823059
:2024C00081F08091080190E002968F3F910519F014F08FEF90E060E0A9DF80910A01809313
:2024E000120108955F98000000005F9A0895880F880F97E0989FF0011124ED5EFE4F76830C
:202500006583E1E0E80F9E9FF0011124ED5EFE4F76836583E2E0E80F9E9FF0011124ED5ED8
:20252000FE4F768365838D5F989FF0011124ED5EFE4F768365830895880F880F97E0989F32
:20254000F0011124ED5EFE4F74836383E1E0E80F9E9FF0011124ED5EFE4F74836383E2E08E
:20256000E80F9E9FF0011124ED5EFE4F748363838D5F989FF0011124ED5EFE4F74836383CE
:202580000895482F50E09A01220F331F240F351FF901EB5AFE4FE4916E17F0F0F901EA5AAE
:2025A000FE4FE491E617C0F097E0949FF001959FF00D1124ED5EFE4F9081691769F0608346
:2025C0000180F281E02D309729F0682F637086958695099581E0089580E008958091590176
:2025E000823039F480916001843018F063E08BE0C8CF0895CF93DF93EAE0E80FEE0F97E0E3
:202600009E9FD0011124AD5EBE4FCC91EF5F9E9FF0011124ED5EFE4FD081682F88E0B1DFD9
:202620006D2F89E0AEDF8C2F6AE00E943C31C92F682F8AE0A6DF6C2F8BE0DF91CF91A1CF30
:20264000611103C080915203D5CF0895CF92DF92EF92FF920F931F9300E010E09801611587
:20266000710531F540E085C0C0906C04D0906D04E0906E04F0906F04CD28CE28CF2881F0A0
:20268000C0906C04D0906D04E0906E04F0906F040C151D052E053F0518F00E948107E2CF37
:2026A00095E19A95F1F700000C5F1F4F2F4F3F4F90916B049111D8CF92E090936B0491E05A
:2026C00090936A049FEF9093690410926804940F90936704880F816080936604809165049D
:2026E000882309F44EC01092650480E090E0DC01209166042093BB0000916C0410916D04D0
:2027000020916E0430916F04012B022B032B71F000916C0410916D0420916E0430916F0410
:2027200080179107A207B30708F0B7CF25E12A95F1F700000496A11DB11D2091BC0023FD29
:20274000D7CF85EC8093BC0080E090E0DC0120916B042230C1F080916804841710F44091D6
:202760006804A5E5B4E0962FFB018E2F891B841760F1842F1F910F91FF90EF90DF90CF90E2
:20278000089585EEDFCF00916C0410916D0420916E0430916F04012B022B032B71F0009198
:2027A0006C0410916D0420916E0430916F0480179107A207B30708F070CF25E12A95F1F7CA
:2027C00000000496A11DB11DC2CF8D918193CDCFCF92DF92EF92FF922091810480917004D5
:2027E00040E050E0BA01213158F181E01CC0C0906C04D0906D04E0906E04F0906F04CD289B
:20280000CE28CF28A9F0C0906C04D0906D04E0906E04F0906F044C155D056E057F0540F0E2
:202820000E94810785E0FF90EF90DF90CF90089595E19A95F1F700004C5F5F4F6F4F7F4F1E
:2028400090916B049111D3CF91E090936B0490936A049FEF909369041092680420936704C6
:2028600090E0880F991F80936604A1E7B4E0E5E5F4E080E028134BC080916504882309F49A
:202880004AC01092650480E090E0DC01209166042093BB0040916C0450916D0460916E04F7
:2028A00070916F04452B462B472B71F040916C0450916D0460916E0470916F04841795074F
:2028C000A607B70708F0ACCF25E12A95F1F700000496A11DB11D2091BC0023FDD7CF85ECA3
:2028E0008093BC0080E090E0DC0120916B042130A1F0809169048F3F91F18091690480325C
:2029000081F180916904803371F184E08CCF9D9191938F5FAFCF85EEE3CF40916C045091EE
:202920006D0460916E0470916F04452B462B472B71F040916C0450916D0460916E047091A4
:202940006F0484179507A607B70708F069CF25E12A95F1F700000496A11DB11DC6CF80E06A
:2029600062CF82E060CF83E05ECF1F93CF93DF93EB0190E49093700491E09093810480935C
:20298000710426DF882329F080E0DF91CF911F91089542E062E874E080E458DE8093930478
:2029A00010929204823048F49091920480919304981751F30E943205F7CF0E943205182FE0
:2029C0000E94320520E0822B912B9983888381E0DCCF0F931F93CF93DF9300D000D0CDB736
:2029E000DEB78C011C821B82BE016D5F7F4F82E0BCDF882371F18B8180FD2EC01A82198269
:202A0000BE016F5F7F4F84E0B0DF882311F1A981BA8128E833E10E94CF31DC01CB012FE0D8
:202A2000B595A795979587952A95D1F7B7FF03C080E090E0DC01F8019183808390E080E03B
:202A40000F900F900F900F90DF91CF911F910F91089581E090E0F4CF82E090E0F1CFCF93B5
:202A6000C62F90E49093700491E09093810480937104872F0E9445058C2F0E944505A8DEE6
:202A800091E0811190E0892FCF910895EF92FF920F931F93CF93DF9300D000D000D0CDB7E0
:202AA000DEB78C010E94E407982F882309F45FC0FF24F394FB82F80180810E94FD07898306
:202AC000F80181810E94FD078A83F80182810E94FD078C83F80183810E94FD078D83F801EB
:202AE0008481805D0E94FD078E8388E680937004F0928104F09271048E010F5F1F4F7E0160
:202B0000F7E0EF0EF11CF80181918F010E944505E016F106C1F75CDE882311F090E027C06B
:202B200088E6F82EF092700401E0009381041FE0109371044DDE8111F1CF41E062E874E0BF
:202B400088E684DD8093930410929204882331F30E943205F09270040093810410937104F6
:202B60008F770E94450534DE91E08111D7CF892F26960FB6F894DEBF0FBECDBFDF91CF911D
:202B80001F910F91FF90EF900895EF92FF920F931F93CF93DF93062FE72E142F98E69093D2
:202BA000700491E0909381048093710411DE811120C0412F62E874E088E648DD8093930454
:202BC00010929204811760F0F02EC02FDE2D0E94320589938C2F8F198117C8F381E00AC0E7
:202BE0009091920480919304981719F00E943205F7CF80E0DF91CF911F910F91FF90EF9091
:202C000008950F931F93CF93DF93CDB7DEB72C970FB6F894DEBF0FBECDBF8C0146E0BE015A
:202C20006F5F7F4F81E0B1DF81110CC080E02C960FB6F894DEBF0FBECDBFDF91CF911F91C0
:202C40000F91089589818F770E9411088F838A818F730E94110888878C818F730E941108B9
:202C600089878D818F710E9411088A878E810E94110890E08053984F9C878B87CE010796D5
:202C80000E94E407882391F296E0FE013796D80101900D929A95E1F7CACFCF93DF93CDB736
:202CA000DEB72C970FB6F894DEBF0FBECDBF611126C0CE01019626E0FC0111922A95E9F772
:202CC000A0DF8823E1F089818F838A818887209167019AE080916E01299F800D1124898716
:202CE0002091750180917C01299F800D11248A878D819E819C878B87CE010796C7DE2C964F
:202D00000FB6F894DEBF0FBECDBFDF91CF910895CF92DF92EF92FF921F93CF93DF9300D0C5
:202D200000D000D0CDB7DEB761113CC0182FCE01019626E0FC0111922A95E9F762DF88238E
:202D400089F1CD80DE80110F110FC60168EE73E00E945531CB012AE0E22EF12CB7010E9419
:202D60005531682F812F0DDCC60164E670E00E945531CB01B7010E945531682F81E0810FE0
:202D800000DCC601B7010E945531D82ECB01B7010E945531682F82E0810FF3DB6D2D83E0AA
:202DA000810FEFDB26960FB6F894DEBF0FBECDBFDF91CF911F91FF90EF90DF90CF900895BD
:202DC000CF93DF93CDB7DEB72C970FB6F894DEBF0FBECDBF611132C0CE01019626E0FC012F
:202DE00011922A95E9F70DDF882341F14091830128EE33E0429FC001439F900D1124209143
:202E00008A01F4E62F9F800D911D1124209191013AE0239F800D911D112420919801820FA5
:202E2000911D29812F832A8128872B8129872C812A879C878B87CE01079628DE2C960FB646
:202E4000F894DEBF0FBECDBFDF91CF910895EF92FF920F931F93CF93DF9300D000D000D0D9
:202E6000CDB7DEB7611128C0182FCE01019626E0FC0111922A95E9F7C4DE882351F1FC80E2
:202E80008B81110F110F0AE0602F0E943C31E92E682F812F76DB6E2D81E0810F72DB8F2D1A
:202EA000602F0E943C31092F682F82E0810F69DB602F83E0810F65DB26960FB6F894DEBF03
:202EC0000FBECDBFDF91CF911F910F91FF90EF90089581E0FF24F394D4CF0F931F93CF936A
:202EE000DF9300D000D000D0CDB7DEB761114BC0E82FEE0FEE0F97E09E9FD0011124AD5E84
:202F0000BE4F3C912AE0A1E0AE0F9A9FD0011124AD5EBE4F8C91329F800D112480934D0325
:202F2000A2E0AE0F9A9FD0011124AD5EBE4F3C91ED5F9E9FF0011124ED5EFE4F8081329F15
:202F4000800D112480934C038091080380FF1BC08E010F5F1F4F86E0F80111928A95E9F76B
:202F6000C8014FDE811107C081E08B838C8380ED97E09E838D8380914C03898380914D03A2
:202F80008A83C80183DD26960FB6F894DEBF0FBECDBFDF91CF911F910F910895FF920F9308
:202FA0001F93CF93DF93CDB7DEB762970FB6F894DEBF0FBECDBF00914D0310914C03809150
:202FC000080380FF1EC042E0BE016F5F7F4F81E0DCDD882309F45BC089818F770E94110864
:202FE000F82E8A818F730E9411089BE39F1508F44EC0883108F04BC0F0924C0380934D03B7
:2030000046C080912F0390913003049744F19FB7F89488E0E1E3F3E0DE011B9601900D92A2
:203020008A95E1F7809137039FBF0E947E0B8F8388898E839F859D83392F32953F702AE065
:203040009F70329F900D112490934D03982F92959F708F70929F800D112480934C038091E9
:20306000220381FF14C0809122038D7F8093220388E690E00E94F70F0E94F30F0E94B507D5
:2030800080914C038F5F8C33C0F480934C0380914D0380131DC081E090914C03911301C006
:2030A00080E062960FB6F894DEBF0FBECDBFDF91CF911F910F91FF90089510924C03809123
:2030C0004D038F5F883108F499CF10924D03DFCF81E0E7CF1F93CF93DF93D82FC62F6111EA
:2030E0001AC05CDFDD0FDD0F1AE090914D0380914C032EEF2C0F223090F0892FC11113C091
:20310000892F612F0E943C31682F8D2F8C0F39DACF5FC43051F7DF91CF911F910895C230DE
:2031200011F4982FEDCF612F0E943C31892FECCF88E680937004109281044ADB61E08111E1
:2031400060E080E0A8D880E480937004109281043FDB61E0811160E081E09DC885ED8093C5
:20316000BC0080916C0490916D04A0916E04B0916F04892B8A2B8B2BC9F080916C049091AF
:203180006D04A0916E04B0916F040796A11DB11D23E0B695A795979587952A95D1F7209134
:2031A000BC0024FD07C010926B0408958FEF9FEFDC01F5CF0097A105B10511F40C948107F0
:2031C0002AE22A95F1F700C040916C0450916D0460916E0470916F04452B462B472BF9F2D4
:2031E0000197A109B109DBCFCF9382E193E00E945507C82F40E150E06FEE73E082E193E025
:203200000E940D316C2F8FEF93E0CF910C941C318FED90E03FD88DE192E00E940E100E94B0
:20322000B50781E08093EE028FB7F89414BC15BC5D9A8FBFE4EFF2E084E0DF011D928A95FF
:20324000E9F7CF010E9455054DD98FB7F89418BC10920A018FBF0895EF92FF920F931F93F8
:20326000CF93C42F062F9CE1899F000D1124E02EF12CC7010E940531C81721F06C2FC701BF
:203280000E942E3188E097E0C7FF14C0CC0FC9278150D1F70C5A10E0C8010E940531C8177A
:2032A00059F06C2FC801CF911F910F91FF90EF900C942E31CC0FECCFCF911F910F91FF90CF
:2032C000EF9008952F923F924F925F926F927F928F929F92AF92BF92CF92DF92EF92FF9294
:2032E0000F931F93CF93DF9300D000D000D01F92CDB7DEB7A82EB12C97E0899FF0011124F4
:20330000ED5EFE4F0580F681E02D3097E9F0682F63708695869527960FB6F894DEBF0FBE54
:20332000CDBFDF91CF911F910F91FF90EF90DF90CF90BF90AF909F908F907F906F905F902C
:203340004F903F902F9009948501000F111F0A0D1B1DF801E95AFE4FE491EE2309F481C002
:20336000582E7E01A4E0EA0EF11CFE0131966F01F4E5F80FFF83360147013A2C87E0282E85
:20338000832D90E00E940531482ED4018D934D0184E5830D90E00E94053198E047FE7AC044
:2033A000440C42249150D1F791E0841190E0F30191933F01FCE13F0E8F813812E1CFA60105
:2033C0004D5F5F4FF7011601912C70E0D1018D911D018823B9F09701C60160E0DC018D907C
:2033E000CD01882031F0D9017C908080781001C06F5F2F5F3F4F4817590781F7761710F455
:203400009080762F31964215530501F7772349F1F801EB5AFE4FE4919E1618F1F801EA5ABB
:20342000FE4FE491E915E8F087E08A9DF0018B9DF00D1124ED5EFE4F908210E0F601819178
:203440006F01882321F0D7018C91891521F0492D652D812F01DF1F5FBFEFEB1AFB0A13308B
:2034600069F727960FB6F894DEBF0FBECDBFDF91CF911F910F91FF90EF90DF90CF90BF909D
:20348000AF909F908F907F906F905F904F903F902F900895440C86CFCF93DF93D82FDD0F2C
:2034A000DD0FC0E08D2F8C0F0DDFCF5FC430D1F7DF91CF910895CF93DF93282F30E097E034
:2034C000899FD0011124AD5EBE4F1396ED91FC911497309739F0682F637086958695DF9147
:2034E000CF910994F901EE0FFF1FE20FF31FE95AFE4FE491EE2381F0C82FDC914D2F682FB9
:2035000080E0AADE4D2F6C2F81E0A6DE4D2F6C2F82E0DF91CF91A0CEDF91CF910895CF9341
:20352000DF93D091520180915901C09160019AE0899FC00D112480915203865F6C2F880F27
:2035400020D880915203880F6D2F8B5E1AD880915203865F880FAFDF80915203880F8B5EA9
:20356000AADF8FEF99E00E944A11809152030E949A108DEE99E00E944A118C2F0E949A1024
:2035800085EE99E00E944A118D2F0E949A100E94F30FDF91CF910C94B507611101C0BFCFA9
:2035A0000895CF93C0914B01809152038C1731F0B6DFC09352038C2FCF911CC8CF9108950C
:2035C000CF93DF93D82FDD0FDD0FC0E08D2F8C0F72DFCF5FC430D1F7DF91CF910895CF9337
:2035E00090915103981771F0C82F80915103813059F0823061F1C0935103C130C1F1C230B0
:2036000009F450C0CF91089589EB99E00E9440110E94B50780915003D3DF109250038FB711
:20362000F89410924F0310924E038FBF40E060E080E00E949E0F60E0809112010E9416128C
:2036400060914D0380914C030E94D211D4CF60E0809112010E9416128DED99E00E940D10C1
:2036600086EC99E00E940D100E94B507C4CF8AE899E00E9440110E94B50780914B030E9472
:20368000881110924A03109249031092500380911201863120F460E086E10E94161280E0FF
:2036A000CF91FACE60E080E00E94161240E060E080E00E949E0F81EB99E00E940D1088E954
:2036C00099E00E940D10CF910C94B50790915103913079F020F0923089F080E00895882364
:2036E00021F08330D1F782E001C081E078DF81E008958150823088F780E0F8CF8823A9F3F5
:203700008430D1F3EACF89EA91E00E9440110E94B50780915103813039F580915003880F04
:20372000880F90914B03890FE82FF0E097E0899FD0011124AD5EBE4F6C919F01220F331F27
:203740002E0F3F1FF901EA5AFE4FE4916E1750F0F901EB5AFE4F64910E94C11280915003AF
:203760000C94E2106F5FF8CF80912F01811117C080915103823099F0809108018250990B48
:2037800097FD80E060E00E94161280910A018093120180910801811102C083E097CF089515
:2037A0001F920F920FB60F9211242F933F934F935F936F937F938F939F93AF93BF93EF9336
:2037C000FF938091B900887F883209F440C000F58031A9F1B0F4882309F473C0883079F1EE
:2037E000FF91EF91BF91AF919F918F917F916F915F914F913F912F910F900FBE0F901F90AF
:203800001895883121F1803259F78093690415C08034D1F160F48033C1F3883309F78093DA
:20382000690485EC8093BC0010926B04D9CF8035F9F0883589F1883499F690DCD1CF8091E5
:2038400066048093BB0085EC8093BC00C9CF9091680480916704981758F5E091680481E015
:203860008E0F80936804F0E0EB5AFB4F8081E9CFE091680481E08E0F809368048091BB00EE
:20388000F0E0EB5AFB4F808390916804809167049817C8F285E8D8CFE091680481E08E0F65
:2038A000809368048091BB00F0E0EB5AFB4F808380916A048111C1CF81E08093650484EA6F
:2038C000B1CF10926904B9CF1F920F920FB60F9211248F929F92AF92BF92CF92DF92EF92AD
:2038E000FF920F931F932F933F934F935F936F937F938F939F93AF93BF93EF93FF93CF9309
:20390000DF93CDB7DEB76897DEBFCDBF80912D0390912E03092E000CAA0BBB0B4091A70229
:203920005091A8026091A9027091AA02840F951FA61FB71F8093A7029093A802A093A9026A
:20394000B093AA0281152AEF9207A105B1050CF44FC09A5FA109B1098093A7029093A802DF
:20396000A093A902B093AA0288EF8093B300E0911001F0911101099520917905280F209371
:20398000790590917805943019F4820F809379059F5F909378059A3008F4D7C1F09079051E
:2039A00080915C058336C8F58F5F80935C05E0905C052E2D30E0A901440F551FFA01EC56D3
:2039C000FB4F8081918160916605709167056817790730F57183608385E08F1558F5F90176
:2039E000E05BFF4FE436F10570F1E456F109FACF813036E09307A105B1056CF49650AF4FCF
:203A0000BF4F8093A7029093A802A093A902B093AA028AEFAACF89EFA8CF10925C05C7CFC8
:203A2000A5E0AF1538F486179707C8F6019691838083D5CFFA01EC56FB4F80819181009795
:203A400071F20197F4CFB901665A7F4F6436710518F064567109FACF80916805909169053E
:203A6000A0916A05B0916B0580906C0590906D05A0906E05B0906F0588169906AA06BB06DD
:203A800054F480936C0590936D05A0936E05B0936F05E09370050091650510E0085D1F4FC2
:203AA0000436110518F004561109FACF2017310741F48093710590937205A0937305B093BC
:203AC0007405E1102CC080906C0590906D05A0906E05B0906F058092610590926205A092F3
:203AE0006305B092640510917005109365058090710590907205A0907305B0907405809200
:203B00005D0590925E05A0925F05B092600510926C0510926D0510926E0510926F05EE0F32
:203B2000FF1FEC56FB4F80809180B12CA12C880C991CAA1CBB1C88199909AA09BB09660F0B
:203B4000771FFB01EC56FB4F60817181860F971FA11DB11D4C565B4FFA0140815181840F30
:203B6000951FA11DB11D8093680590936905A0936A05B0936B05809177058111C6C08091E9
:203B8000650590E0A9014B595F4F481B590B4436510518F044565109FACF4B30510568F0CA
:203BA0008C599F4F821B930B8436910518F084569109FACF029708F0A8C0CE0141960E9421
:203BC000280C88E0FE017196DE01199601900D928A95E1F71091A60291E0111101C090E081
:203BE0008F89890F8F8BCE0141960E94BE0ECE0141960E94A30A8F89882309F460C28093FD
:203C0000A4020E94A905182F87E993E00E941A08811708F4182F87E593E00E941A08082F0B
:203C2000181708F4012F0E94DF06E82E081708F4E02E0E946906082F0E94F305D82E89E30F
:203C400094E00E94AF09182F87E494E00E94AF09D01608F40D2D101708F4012F801708F414
:203C6000082F8FB7F8949091040420910304291708F469C28FBFE01608F40E2D80912F0335
:203C800090913003023008F4F1C2059759F080910A03816080930A0385E090E090933003C0
:203CA00080932F0384E0C82ED12CAA24A394B12C80912F03909130038230910519F108F0A5
:203CC00065C3009709F482C3019791F7011166C31092300310922F039091390381E0982762
:203CE000909339031092370310923603109235038093330380933203109231038093340323
:203D00001092380386E180937705909177059923C1F091509093770581E0B5E0BF1508F084
:203D200080E020917505820F809375059B3009F09AC3863008F495C382E08093760510921D
:203D40007505109278051092790580913A0390913B03019690933B0380933A0320912F03D2
:203D6000309130032530310539F020912F033091300324303105B9F48E379440A0F081E003
:203D800090E0A0E0B0E080933C0390933D03A0933E03B0933F0383E090E0909330038093B9
:203DA0002F030E94BD0880912F0390913003039739F080912F0390913003029709F048C0DF
:203DC00080913A0390913B03883E43E0940708F43FC0885E934090933B0380933A0380913C
:203DE0003803877F8093380381E393E00E94BE0E81E393E00E94D90C8091390391E0892723
:203E00008093390380913C0390913D03A0913E03B0913F030196A11DB11D80933C03909315
:203E20003D03A0933E03B0933F0340914003509141036091420370914303481759076A0763
:203E40007B0730F482E090E09093300380932F0380918705893010F00C94E7278F5F80934A
:203E600087051091EE021111B7C098B580910A01981711F180910A018D32F0F48091AB02F5
:203E80008F5F8093AB028936C9F498B580910A01981710F00C94242888B581110AC084B522
:203EA000882311F40C941E2885B5882311F40C941E2888B58F5F88BD1092AB02E090ED027E
:203EC000EE2009F489C08091EC028F5F803110F00C9434288093EC029091EC02DE0111965E
:203EE00050E040E0FA2E0B2F61E070E030E020E080E0FA01E20FF31FE453FD4FE0819E1778
:203F000038F4FB01022E01C0EE0F0A94EAF78E2B2F5F3F4F2830310561F78D93485F5F4FDC
:203F20004032510519F78F2D902F0E9455050E9472128091090181508093090181114CC065
:203F400080915103813011F00C94382884E18093090130E020E0D901A453BD4F9C91F901B4
:203F6000E455FD4F8081981710F00C943B288C918F5F8C931E2D2F5F3F4F2032310559F7A0
:203F800011112AC01092ED02EF2DF02F30E020E061E070E040E090E080E0D901A80FB91F4F
:203FA000A453BD4F5C91503138F0DB01082E01C0AA0F0A94EAF74A2B01968830910569F7A3
:203FC0004193285F3F4F2032310521F78F2D902F0E9455050E9472128091530390915403DC
:203FE000892B49F08091530390915403019790935403809353038091F002805F8093F00293
:204000008091EF028F3F71F08091EF02882311F40C9445289091F0028091EF02981710F0EC
:204020000C9445282B9A80914E0390914F03019690934F0380934E0368EE73E00E94553198
:20404000892BA9F48091220381608093220380914E0390914F0380369A4E48F080912203DF
:2040600082608093220310924F0310924E038091220384608093220368960FB6F894DEBF01
:204080000FBECDBFDF91CF91FF91EF91BF91AF919F918F917F916F915F914F913F912F9197
:2040A0001F910F91FF90EF90DF90CF90BF90AF909F908F900F900FBE0F901F90189588E029
:2040C000FE013996AEE9B2E001900D928A95E1F71092A4028E89813031F580910E0318163C
:2040E00014F410920F0310920E031092100390910F03888D8E7F97FF81608B7F877F888FA9
:20410000CE0141960E94A30A988D8091A50290FB80F992FB82F993FB83F990910D0390FBFB
:2041200081F98093A5028D89833229F48E89893511F41092110381E0123008F080E0812334
:204140008093A6025ECD192F121B8FBF80E09D3138F49D3008F46CC01695169516C0822F8A
:20416000969521E0280F9111FACF8D30A8F18D3009F44CC08E3009F44CC081E190E0189F05
:204180009001199F300D1124132F002309F473CD112309F470CD0E9495058F830E94EA0B6F
:2041A0008E830E94D30B8D830E94BB0B8C830E94A30B8B830E948B0B8A830E94150C898375
:2041C000CE0101960E94530A811101C087E09C81981347C00F5F4FCD893060F08B3028F08B
:2041E0008C30D1F485E190E0CACF8A30C1F489E190E0C5CF873028F08830A1F480E290E004
:20420000BECF863091F48AE290E0B9CF83E190E0B6CF82E190E0B3CF87E190E0B0CF8CE100
:2042200090E0ADCF84E290E0AACF83E390E0A7CF993058F01B3008F02BC7173008F02EC77D
:20424000143008F418CD11E024C7953030F0163008F024C71330B8F70ECD9330D8F7169545
:2042600094CF101708F407CD00E005CD059709F019CD80910A038E7F80930A030E94A9051C
:20428000EE24E394882309F477C0E12C87E993E00E941A0811E0811110E01E2921F087E5CB
:2042A00093E00E94B00887E593E00E941A08EE24E3948111E12CE12A81F0EFEDF3E0119298
:2042C00023E0E73FF207D9F71092F7031092F90389E18093FA031092F8030E94DF0611E023
:2042E000811110E0E12A39F11092FB031092FC031092FD031092FE031092FF031092000437
:2043000010920104109202041092040488E08093050410920304E6E0F4E0119234E0E5320F
:20432000F307D9F7109225041092270480E280932804109226040E94690611E0811110E02A
:204340001E2981F0E9E2F4E0119244E0E533F407D9F710923504109237048DE080933804E8
:20436000109236040E94F305882309F011110E94740584E090E092CC87E993E00E94B00877
:204380008FEF8093DD038093DE0380CF8430910521F108F449C0059709F08ACC10923B033D
:2043A00010923A0388E0EEE9F2E0A1E3B3E001900D928A95E1F78EE992E00E94D90C80914E
:2043C000390391E08927809339039CCC0023B9F3B0923003A0922F036BCC0E94A9058536DF
:2043E00090F080913803877F8093380381E393E00E94BE0E81E393E00E94D90C10923B031A
:2044000010923A03DCCF83E090E09093300380932F030E94BD0810923C0310923D031092D8
:204420003E0310923F036ECC0E94A905853608F469CC80913A0390913B039C01295C3109D8
:204440002735324008F45ECCD0923003C0922F03883C910508F02CCC10923B0310923A0346
:2044600051CC80E06ACC91116CCC01E0863008F400E080917605080F00937605109275056F
:20448000CE0101960E94280C1091A6028F81810F8F83CE0101960E94BE0E110F8F818B3323
:2044A00049F4988593FB882780F993FF04C081E09E81911180E0810F8093A602813009F41B
:2044C00040CC4091D5038091D403481B550B8091DD038F3F09F0BCC08091D303882309F4B9
:2044E0006CC0AFEFA80FEBEE853108F4E7E2E80FF0E0282F30E0B0E029563C4FA956BC4F15
:20450000BF0169567C4F023009F465C0033009F479C0F901908101118DC0993F08F44FC047
:204520009FEF90839C91933008F04BC01C92DB019C91933008F048C01C92E1E0E80F8B3349
:2045400008F0E0E0F0E0E956FC4F9081933008F03FC010828B3308F079C08F5F8093D30326
:204560004D30510524F00E949505833021F487E993E00E9499088F81811154C180919303CC
:204580008B3308F00AC18F5F809393038E81811187C50E94D30B843208F005C10E94D30BA2
:2045A0009D81891709F4FFC08091F703873108F0F7C08F5F8093F703ECCFABE397CF9A5F6C
:2045C000B0CF92509C93B3CF9250FB019083B5CF92509083BFCF9C919E3F40F09FEF9C93DA
:2045E000D9019C91933020F41C9205C09F5FF7CF9250F9019083DB019C91933088F0925091
:20460000FB01E7CFFB0190819E3F60F09FEF9083F9019081933040F410829C91933038F45D
:204620001C9298CF9F5FF3CF92509083F6CF92509C9390CF933038F410829C919330A0F278
:2046400092509C93D8CF92509083F7CF80E086CF4D30510524F00E949505833009F587E9EE
:2046600093E00E9499088091D5038E3CA8F0E7E9F3E023ED33E09081933380F510823196CE
:204680002E173F07C1F782538093D5038091D403833338F51092D4038091DD038093DE03EE
:2046A0009091D303011123C0E92FF0E0E956FC4F8081893FD0F08FEF80838091D6039813FD
:2046C00005C08091DD038A5F8093DD0381E0890F9B3308F080E08093D3034DCF925390832C
:2046E000CECF82538093D403D7CF8A5FE5CF8EEF800F823058F711E0033009F010E08FEF83
:20470000890F911101C08BE3E82FF0E031E0033009F430E0E956FC4F2081230F2083F09078
:20472000D6038F1105C02091DD03230F2093DD03803128F180512091D7032695269526958E
:20474000A8EDB3E033E040E05091DD03E82FF0E061E0722F7170711360E0E956FC4F708154
:20476000760F7083F81201C0560F8823A1F0815026953F5F453029F4363040F304C0845D5B
:20478000DACF383019F75093DD034F5F2D9130E04630D1F69BCF8BE3EBCF10929303F6CEEE
:2047A0001092F703F6CE8D8181113CC00E94BB0B883040F480910204863008F087C08F5FAF
:2047C000809302040E94A30B823308F482C08B81813041F50E948B0B833140F48091350420
:2047E0008B3008F087C08F5F809335048A818130C9F489818A39B0F480914304893008F092
:204800007CC08F5F8093430489E394E00E94010C811108C080915104893008F071C08F5FF5
:204820008093510411E0033021F011E0013009F010E08F81853160F00BEED02ED80EF8E005
:20484000FD1530F0DF125FC087E593E00E94990887E593E00E941A08882309F472CA8F815D
:20486000813109F4C2C008F0ABC08F3009F4B3C0803109F4B3C08F818D3108F418C1A3EE20
:20488000DA2ED80E47E04D1508F411C1D412BEC01092F8031092F90389E18093FA03EFEDDE
:2048A000F3E049E180E090E020E03191391708F0A9C0831708F4832F2F5F2831B1F79093BE
:2048C000F9038093F8034093FA03F1C01092020479CF0E94A30B9B81891709F478CF8091FC
:2048E00025048E3120F48F5F809325046BCF1092250468CF1092350479CF1092430484CFF7
:20490000109251048FCF1986809193030BE3081BBCE3AB2EBB24BA94C12C802F90E09C019D
:20492000295A3C4F7901898537E0D316E9F1482F50E00D2C02C0559547950A94E2F7417077
:20494000612FC7010E948E08D7018C91C81608F4C82E8B1508F4B82E0B3368F50F5FCE01A8
:2049600009960E945B0CAA94A110D7CFE7E5F3E0AF01DA018D91AD019D01215031098B1917
:20498000D9018C93B3E043395B0799F726EF2C1508F05ECF8081893080F41082319633E008
:2049A000E339F307B9F754CF0E946F0B41E08111C7CF40E0C5CF00E0D2CF88508083EECFDC
:2049C0008331D9F0B8F08A3309F055CF612F617081E193E007C010930D034DCF612F6170AB
:2049E0008EE093E00E945E0B46CF612F61708FE093E0F8CF61E06127FACF612F617080E158
:204A000093E0F0CF422F892F932F56CF19868091F70307E1081BF8E1AF2EBB24BA94C12CCF
:204A2000802F90E0DC01A152BC4F7D018985B6E0DB1609F466C0482F50E00D2C02C05595BA
:204A400047950A94E2F74170612FC7010E948E08F7018081C81608F4C82E8B1508F4B82E77
:204A6000073108F055C00F5FCE0109960E945B0CAA94A110D5CFEFEDF3E027EF33E0BF01E1
:204A8000DB018D91BD01AD01415051098B19DA018C9326173707A1F7B7EFBC1540F4808168
:204AA0008830C0F510823196E617F707C1F78F818A3208F483C0E6EDDE2ED80EE3E0ED15E8
:204AC00008F47CC0DE122DC0109203041092040488E080930504EBEFF3E048E080E090E045
:204AE00020E031913917C8F4831708F4832F2F5F2730B9F7909304048093030440930504EA
:204B00005DC00E946F0B41E081119ECF40E09CCF00E0AACF87508083C6CF422F892F932FFE
:204B2000E6CF81E089878091020406E0081B77E0C72EEE24EA94F12C498550E00D2C02C03D
:204B4000559547950A94E2F74170802F90E09C0125503C4F5901612FC9010E948E08D501E9
:204B60008C91F81608F4F82E8E1508F4E82E063008F04EC00F5FCE0109960E945B0CCA94B4
:204B8000C110DACFEBEFF3E022E034E0BF01DB018D91BD01AD01415051098E19DA018C9326
:204BA00026173707A1F7BBEFBF1540F48081843088F5108231966E177F07C1F78F8184321C
:204BC00008F47CC06CEDD62ED80EE6E0ED1508F475C0DE1226C0109226041092270480E290
:204BE00080932804E6E0F4E040E280E090E020E03191391790F4831708F4832F2F5F2F311E
:204C0000B9F790932704809326044093280456C000E0B1CF83508083CDCF422F892F932F87
:204C2000EDCF81E08987809125040EE1081B5FE1C52EEE24EA94F12C498550E00D2C02C022
:204C4000559547950A94E2F74170802F90E09C012A5F3B4F5901612FC9010E948E08D501D5
:204C60008C91F81608F4F82E8E1508F4E82E0E3108F04EC00F5FCE0109960E945B0CCA94AA
:204C8000C110DACFE6E0F4E0AF01DA018D91AD019D01215031098E19D9018C93B4E04532B5
:204CA0005B0799F728EF2F1548F48081873090F51082319634E0E532F307B9F78F818D3231
:204CC00008F47CC043EDD42ED80E46E04D1508F475C0D41226C010923604109237048DE0D9
:204CE00080933804E9E2F4E04DE080E090E020E03191381790F4931708F4932F2F5F2C30E2
:204D0000B9F790933604809337044093380456C000E0B1CF86508083CCCF422F982F832F55
:204D2000EDCF81E08987809135040BE0081B3CE0C32EEE24EA94F12C498550E00D2C02C03B
:204D4000559547950A94E2F74170802F90E0DC01A75DBB4F5D01612FCD010E948E08F50171
:204D60008081F81608F4F82E8E1508F4E82E0B3008F04FC00F5FCE0109960E945B0CCA94C8
:204D8000C110DACFE9E2F4E025E334E0BF01DB018D91BD01AD01415051098E19DA018C932C
:204DA00026173707A1F7B8EFBF1540F48081873090F510823196E617F707C1F7FF80E1E3A5
:204DC000EF1508F07BC02EEC922E9F0CF4E0F91508F474C09F1226C0109244041092450499
:204DE0008BE080934604E9E3F4E04BE080E090E020E03191381790F4931708F4932F2F5FC5
:204E00002A30B9F790934404809345044093460455C000E0B0CF86508083CCCF422F982F84
:204E2000832FEDCF19868091430409E0081B9AE0C92EDD24DA94E12C498550E0092C02C01F
:204E4000559547950A94E2F74170802F90E09C01275C3B4F5901612FC9010E948E08D501D9
:204E60008C91E81608F4E82E8D1508F4D82E093008F04FC00F5FCE0109960E945B0CCA94DE
:204E8000C110DACFE9E3F4E023E434E0BF01DB018D91BD01AD01415051098D19DA018C932C
:204EA00026173707A1F7BAEFBE1540F48081853090F5108231966E177F07C1F7E5E3EF150C
:204EC00010F00C94A11E0AEC0F0D053010F00C94A11E043039F510925204109253048BE00F
:204EE00080935404E7E4F4E04BE080E090E020E03191381798F4931708F4932F2F5F2A30C0
:204F0000B9F79093520480935304409354040C94A11E00E0B0CF84508083CCCF422F982F6B
:204F2000832FECCF19868091510499E0F92EF81A8AE0C82EDD24DA94E12C498550E0002E45
:204F400002C0559547950A94E2F74170AF2CB12C612FC501895B9B4F0E948E08F501E75C54
:204F6000FB4F8685E81608F4E82E8D1508F4D82EF8E0FF1538F1F394CE0109960E945B0C15
:204F8000CA94C110DACFE9E3F4E023E434E0DF011E968C911E978D191E968C931E97119643
:204FA0002A173B07A9F72AEF2E1510F00C94A11E8685853048F416863196AE17BF07C1F771
:204FC0000C94A11EF12CD8CF84508687F5CF1092870580918405909185058F359A4E00F5F5
:204FE000809184059091850501969093850580938405809184059091850560E777E10E9406
:205000005531892B11F00C94311F8091820590918305019690938305809382050C94311F58
:205020001092850510928405809182059091830501969093830580938205DBCF83E384BDAB
:2050400089E085BD0C945C1F88B5882311F40C945C1F88B5815088BD81110C945C1F5D9A8B
:2050600014BC15BC0C945C1F1092EC020C946C1F80EF0C94A71F9C918081891710F00C9476
:20508000BB1F8C9181500C94B91F2B980C94132013E0002311F40C943B1E7DC812E0F9CF27
:2050A000033009F0C2CB11E0D3CB109270041092810410929204109293041092870520911B
:2050C0007A0530917B0540917C0550917D0560917E0570917F058091800590918105A1E0A4
:2050E0000E94E53120937A0530937B0540937C0550937D0560937E0570937F058093800535
:20510000909381050E94F13151F58CE291E09093670580936605109268051092690510922F
:205120006A0510926B0510926C0510926D0510926E0510926F0510927005109271051092CB
:20514000720510927305109274051092750510927605109277051092780510927905089570
:20516000CF93DF93CDB7DEB760970FB6F894DEBF0FBECDBF14BE0FB6F894A8958091600033
:20518000886180936000109260000FBEF894ECE8F5E085EC819325E0E43AF207D9F788B105
:2051A000806388B987B18F7C87B981E08093800019E0109381001092890010928800109240
:2051C0008B0010928A00219A2998229A2A98239A2B9840E06FE78FEF0E949E0F1092C500F4
:2051E00087E68093C4001092C00088E08093C10086E08093C2008FED96E00E9440110E940B
:20520000B50788EC96E00E9440110E94B5078CB58F7B8CBD809164008460809364008DB3F3
:205220008C7F8DBB8CB383608CBB88E896E00E9440110E94B5073A98429A56985E9A389817
:20524000409A88E596E00E9440110E94B5072898209A5F98579A2C98249A5D9A559A83E310
:2052600096E00E9440110E94B50714BC15BC88E587BD18BC10926E008AE096E00E9440115E
:205280000E94B5073B98439825982D988DED95E00E9440110E94B50753985B9A52985A9A82
:2052A0003998419A54985C9A80917C00807F836080937C0087E080937A0080E480BF81EC5E
:2052C00095E00E9440110E94B50782E08093B00094E09093B10099EF9093B3001092B200E9
:2052E0008093700085EA95E00E9440110E94B50778948EE895E00E9440110E94B50784EF3B
:2053000092E00E9455050E9472128FB7F89493E394BD15BD8FBF80910A01863120F460E019
:2053200086E10E9416128FEB91E00E9440110E94B5070E94BB1184E795E00E9440110E941D
:20534000B50782EE92E00E944A1182EC92E00E944A110E94B5070E946A071092560388EAF7
:2053600091E6A0E0B0E080936C0490936D04A0936E04B0936F0411E0109355030E949818F6
:205380008091080380FF4DC48AEB92E00E944A118EE992E00E944A110E94B50708E60093B8
:2053A0007004109381048EE08093710484E00E9445050E94E813811127C00093700410934B
:2053C000810432E0F32EF09271040E94E81381111BC041E062E874E088E60E9426138093F9
:2053E000930410929204882379F00E94320586FF0BC00093700410938104F09271048F7B71
:205400000E9445050E94E81382E792E00E944A1180E592E00E944A110E94B50760E070E861
:2054200080E00E942F15882309F406C46FEF7FE180E00E942F15882309F4FEC366E37AE1A3
:2054400085E00E942F15882309F4F6C388E492E00E944A1188E292E00E944A110E94B5078E
:2054600088EB9BE00E949F0782E595E00E9440110E94B5074C99E7C387E095E00E9440116B
:205480000E94B50710E0812F0E94E01A1F5F1730D1F713E04FEF6FEF8FEF0E949E0F8CE21B
:2054A00091E00E949F0740E060E080E00E949E0F8CE291E00E949F07115061F786ED94E05D
:2054C0000E9440110E94B507909121012AE080912801929F800D11248983909113018091AF
:2054E0001A01929F800D11248A839091670180916E01929F800D11248B83909175018091DF
:205500007C01929F800D11248C833091830148EE53E0349FC001359F900D112430918A01D8
:20552000AC0164E6369F400D511D112480919801840F952F911D30919101329F800D911DA1
:2055400011249E838D83CE0101960E94461583EA94E00E9440110E94B5078FEF9FEF909321
:2055600013038093120390931503809314039093170380931603909319038093180390938F
:205580001B0380931A0390931D0380931C0390931F0380931E0390932103809320030E94B0
:2055A000F4186DE677E180E00E949C126AE678E180E00E9477126DE476E183E00E949C12F5
:2055C00067E277E183E00E94771268E876E184E00E94771260EE76E184E00E949C128BE59D
:2055E0009FE0909338018093370181ED9AE190934D0180934C018EEE92E190935B0180934A
:205600005A0190936201809361016DEC7AE182E00E949C1260E273E182E00E94771284E146
:205620000E94621985E10E94621986E10E94621987E10E94621988E10E94621989E10E942F
:2056400062198AE10E9462198BE10E94621980E00E94FA1210E0812F0E944C1A1F5F173043
:20566000D1F760E080E00E945B0F80913D018E010F5F1F4F8823C9F18FEF9FEF9093130352
:205680008093120390931503809314039093170380931603909319038093180390931B0366
:2056A00080931A0390931D0380931C0390931F0380931E03909321038093200340E150E0FE
:2056C0006FEE73E0C80191D58FEF93E09ED5F82EC8010E945507F812BDC280E1F801A2E134
:2056E000B3E001900D928A95E1F788E594E00E9440110E94B5070E94CE1760914D038091E5
:205700004C030E94D21140E060E080E00E949E0F86E394E00E9440110E94B5070E941809B5
:2057200084E194E00E9440110E94B50781ED93E00E9440110E94B50786EB93E00E944A112C
:205740008091880590918905009711F484EA95E0B801681B790B77FF02C070E060E0072EC0
:20576000000C880B990B0E94321082E992E00E9428100E94B5078BE993E00E944A118091F8
:205780000803E82E80FF7FC280E793E00E9440110E94B5078BE793E00E944A1186E393E03F
:2057A000E1FC02C089E293E00E9440110E94B50781E493E00E9440110E94B50783EF93E00D
:2057C0000E9440110E94B50780E2882E83E0982EA12CB12C98EE692E93E0792E27E0C22E5F
:2057E000D12CBCE25B2EA8958091220380FFCDC18091880590918905009711F484EA95E039
:205800007801E81AF90AECE8F5E08191853C09F03DC285E0E43AF807C1F720E4E216F1046B
:205820000CF463C280915103813009F060C28091490390914A03019690934A0380934903E1
:205840008C32914008F453C281E397E00E9440110E94B507809150030E944C1A82E00E940C
:20586000661B0E94981880913D01882309F460C098B580910B0198135BC0C8010E94E914A6
:2058800082309105B1F1892B09F052C2F0900B0127E230E08FEFE0E040E065E0FF2DF61BD8
:2058A000F61610F4F62FFF19F81708F43FC2F82F4F5F483009F02FC2F0E0EE0FFF1FEE5E21
:2058C000FC4F8081918197FD33C289819A819C0197FF04C022273327281B390BF12CE12C71
:2058E000223331054CF053E0E52EF12C181619061CF472E0E72EF12C8091F2029091F30282
:205900008E159F0509F418C21092F1028091F102833050F0F2E0EF16F10409F413C223E03C
:20592000E216F10409F41BC2F092F302E092F202259B12C0809146039091470301969093B2
:2059400047038093460380369A4E30F0259840E060E08FEF0E949E0F8091220384FF74C00C
:20596000809122038F7E80932203259840E06FEF80E00E949E0F80912703282F22952F70DA
:205980009AE08F70299F800D112480934D0380912803282F22952F708F70299F800D11242F
:2059A00080934C032FB7F89480912903382F32953F708F70399F800D1124869DA001879D78
:2059C000500D112450934F0340934E032FBF80914C03898380914D038A8380912503282F84
:2059E00022952F708F70299F800D11248B8380912403282F22952F708F70299F800D11244C
:205A00008C8380912303282F22952F708F70299F800D112490E08053984F9E838D83C801E6
:205A20000E9446158091510381110EC089EE97E00E94F70F0E94F30F0E94B50760914D03CB
:205A400080914C030E94D21180910003811107C080914D038093FF0281E0809300038091F7
:205A60005103811140C020904D038091FF022816D1F12092FF024FE9E42E41E0F42E312C91
:205A8000F70180814780442039F1281225C089E498E00E944A11832D0E949A1086E398E0DA
:205AA0000E944A11822D0E949A108DE298E00E944A11842D90E00E948C100E94B507F2E07B
:205AC0004F1609F453C123E0421609F453C151E083E0451609F44BC133946EE0E60EF11CD6
:205AE00084E03812CDCF80912F01813009F048C080915103811144C090917C0040917A0086
:205B000050917B0080917B008F7B80937B0080917A00806880937A0081E480937C00809100
:205B20007A00806480937A0080917A0086FDFCCF80917A00806480937A0080917A0086FD97
:205B4000FCCF209178003091790050937B0040937A0090937C00213293E0390710F020E2C5
:205B600033E0A7E2B0E00CD4A5019401E7D3852D821B2732310509F485E065E00E941612D5
:205B8000809122038E7F809322038091220382FF2ACEF9B08091FB0283FFC2C280910F01FD
:205BA0009F2D98279C7009F4EEC01092FA021092F9021092F802F0920F01259B09C08091A0
:205BC000220340E083FF0EC36AE08FEF0E949E0F80912203877F809322038091510382308B
:205BE000D1F48091FE028823B1F02FB7F89480914E0390914F032FBF2091FC023091FD02DF
:205C0000821B930B88399A4330F01092FE0260E080E00E941612809122038B7F8093220307
:205C2000E0CD86E992E00E944A118AE792E00E944A110E94B507E8CB80E292E00E944A1117
:205C40008DEF91E009CC8EE694E00E9440110E94B507A7CC82E392E00E9428100E94B507C7
:205C600081E792E00E9428100E94B5070E94BB1180E293E00E940D108AEE92E00E940D1067
:205C80000E94B50732CD83E693E080CD10E085E297E00E944A118AE197E00E944A110E9432
:205CA000B507B701F7FE02C070E060E0072E000C880B990B0E94321081E197E00E944A11F7
:205CC0008EE097E0111102C084E097E00E9440110E94B50788E198E00FB6F894A89580934D
:205CE00060000FBE90936000FFCF11E0D0CF0E94CE17882309F4B5CD809148038111B1CD79
:205D0000809151038111ADCD60914D0380914C030E94D211A6CD6CE2473021F0C901B60122
:205D2000C4D26B5F295D3F4F8F2FB8CDE42FC0CDEE24E394F12CE0CD8091F1028F5F8093B4
:205D4000F102E4CD8AE897E00E940D1082E697E00E940D100E94B5070E940819E5CD81EE17
:205D600097E00E940D1082E997E0F2CF84E00E94661BB2CE0E94180985E098E00E944011B0
:205D80000E94B507A9CE9091FA02983020F49F5F9093FA0212CF90910E0190930D018093C3
:205DA0000E01282F29272C7081F18C709C709C3081F48C3071F08FE798E00E9440110E9436
:205DC000B50780915103813061F510924A03109249038091FB0290910E01292F2C7080FF0D
:205DE00085C12C3041F482FF43C082E998E00E9440110E94B5078091FB0290910E019C70CA
:205E00009C3019F4887F8093FB021092FA021092F9021092F8028091FB02877F8093FB0297
:205E2000CCCE809151038230A1F687E798E00E940D1089E598E00E940D100E94B50760E032
:205E400086E10E94161260914D0380914C030E94D21181E08093FE028FB7F89420914E03A3
:205E600030914F033093FD022093FC028FBFB1CF8BED98E00E9440110E94B5078091510328
:205E8000813009F423C180914803882379F080910C01FF24F394F80E5F2CE1E0EF151CF0D6
:205EA000FFEFFF1205C00E940A12A5CF8FEFF1CF89EC98E00E944A118F2D0F2C000C990B1D
:205EC0000E948C100E94B507FF2051F021E0F21609F4B5C0F0920C0181E0809348038BCFA3
:205EE00042E0B80181E10E94C515882309F444C029818A8187FF07C0552453942F3719F468
:205F00002FE7522E01C0520E8BEB98E00E944A11852D052C000C990B0E948C100E94B507B0
:205F2000852D6AE0B5D1282F69E065150CF02195852D6AE0ADD1692F990F770B77FF03C09E
:205F4000719561957109E62E57FE74C0E8EBF8E0E491E093F4026E2D81E00E94DD0EE7EB4A
:205F6000F8E0E491E093F602E9EBF8E0E491E093F7020E94EC0EAECF50907C00E0907A007D
:205F800088EC80937C0087E880937A0084E190E00E949F0780917A00806480937A008091D8
:205FA0007A0086FDFCCF28E080E090E0DC0130917A00306430937A0030917A0036FDFCCF1F
:205FC0004091780050917900840F951FA11DB11D215069F750927C00E0927A0033E0B695D2
:205FE000A795979587953A95D1F79C01AD01442755272254314041095109ABE2B4E2D5D100
:2060000020E137E240E050E099D1DA01C9014796A11DB11D80389105A105B1050CF070CFB9
:20602000582E80389F4FAF4FBF4F0CF06DCF90E8592E6ACF622F80E00E94DD0E8CCF42E0BD
:20604000B80184E00E94C515882399F089818F730E941108582E8A818F710E941108E82E4A
:206060008FEF850D8F3128F4EE2021F08CE08E1510F4E12C512C852D0E949A1087EC98E08F
:206080000E944A118E2D0E949A1085EC98E00E9440110E94B5078AE0482E852D642DECD0E3
:2060A000592E682F80E00E94DD0E652D81E00E94DD0E8E2D642DE0D0E92E682F82E00E94A7
:2060C000DD0E6E2D83E00E94DD0E53CF809150030E94E01A809150038F5F809350030E94CE
:2060E0004C1A809150030E94E21085CE211104C081608093FB027FCE81FD7DCE93FF07C099
:2061000080910D0183FD03C00E94421274CE92FF72CE80910D0182FD6ECE0E94831B6BCEC1
:2061200090910E01492F4C704C3099F12091F8023091F902243FE1E03E07C0F42F5F3F4F55
:206140003093F9022093F80280910E018F258C7009F433CD1092FA021092F9021092F80230
:20616000F0920F018091FB02886058CE411120C082FD0FC084608093FB0281EF98E00E9473
:2061800040110E94B50780915103813039F40E94661B1092F9021092F802D6CF80E00E940A
:2061A000661B8823B1F3809150030E94E210F1CF80FDEFCF92FD0AC082608093FB028BE066
:2061C00099E00E944A110E94831BE3CF93FDE1CF82608093FB0286E299E00E944A110E94A5
:2061E0004212D7CF60E080E0F1CCDC01CB01FC01F999FECF06C0F2BDE1BDF89A319600B423
:206200000D9241505040B8F70895F999FECF92BD81BDF89A992780B50895DC01A40FB51FFE
:206220004150504040F0CB01840F951F2E9105D041505040D8F70895262FF999FECF92BDD6
:2062400081BDF89A019700B4021639F01FBA20BD0FB6F894FA9AF99A0FBE0895262FF99962
:20626000FECF1FBA92BD81BD20BD0FB6F894FA9AF99A0FBE01960895991B79E004C0991F0C
:20628000961708F0961B881F7A95C9F78095089587FB082E062687FD819567FD6195ECDFDD
:2062A0000EF4919507FC81950895AA1BBB1B51E107C0AA1FBB1FA617B70710F0A61BB70BCB
:2062C000881F991F5A95A9F780959095BC01CD01089597FB072E16F4009406D077FD08D0E7
:2062E000E4DF07FC05D03EF4909581959F4F0895709561957F4F0895A1E21A2EAA1BBB1B3F
:20630000FD010DC0AA1FBB1FEE1FFF1FA217B307E407F50720F0A21BB30BE40BF50B661F8B
:20632000771F881F991F1A9469F760957095809590959B01AC01BD01CF010895052E97FBED
:2063400016F400940FD057FD05D0D6DF07FC02D046F408C050954095309521953F4F4F4FAA
:206360005F4F089590958095709561957F4F8F4F9F4F0895EE0FFF1F0590F491E02D099487
:20638000A29FB001B39FC001A39F700D811D1124911DB29F700D811D1124911D0895F0DFFD
:2063A000B7FF0895821B930B0895EADFA59F900DB49F900DA49F800D911D11240895B7FF12
:2063C000F4CFF3DF821B930B08950024A7FD00942A0F301D401D501D601D701D801D901D50
:2063E00008950024A7FD00942A1730054005500560057005800590050895F894FFCF16167D
:206400001616161616FF16F01616FF0C0C0C230A1600000000000000000000000000000077
:20642000000000000000000000000000000100000000000005000000000000000000000056
:2064400000000100000000000000000000000000000000000000000000000000000000003B
:2064600000000000000000000000000001000000000000000000000000000100000000001A
:206480000002000000000000000000000000000200000000000006000000000000000000F2
:2064A0000000000000000000000000000000000000000000000000000000000000000000DC
:2064C00000000000000000000000000000000000000000000000000000FFFFFFFF7F00FF42
:2064E000000000FF00FF0A00535452414E4B413A200020484F444E4F5459204E554D495434
:20650000524F4E4F563A004E6173746176756A656D206A6173206E613A2000656D657267D8
:20652000656E637953687574646F776E28290A004E65706F646172696C6F207361206E6105
:206540006369746174206B616C69627261636E7520746162756C6B7520707265204D6F6E21
:2065600069746F72207320454550524F4D2E005370757374616D65206175746F6D617469DE
:18658000636B75206B616C696272616369752E00206279746573000014
:00000001FF
